{
  "contractName": "HammerNFT",
  "abi": [
    {
      "inputs": [
        {
          "internalType": "address",
          "name": "_paymentCurrency1",
          "type": "address"
        },
        {
          "internalType": "address",
          "name": "_paymentCurrency2",
          "type": "address"
        },
        {
          "internalType": "uint256",
          "name": "_amount1",
          "type": "uint256"
        },
        {
          "internalType": "uint256",
          "name": "_amount2",
          "type": "uint256"
        }
      ],
      "stateMutability": "nonpayable",
      "type": "constructor"
    },
    {
      "anonymous": false,
      "inputs": [
        {
          "indexed": true,
          "internalType": "address",
          "name": "owner",
          "type": "address"
        },
        {
          "indexed": true,
          "internalType": "address",
          "name": "approved",
          "type": "address"
        },
        {
          "indexed": true,
          "internalType": "uint256",
          "name": "tokenId",
          "type": "uint256"
        }
      ],
      "name": "Approval",
      "type": "event"
    },
    {
      "anonymous": false,
      "inputs": [
        {
          "indexed": true,
          "internalType": "address",
          "name": "owner",
          "type": "address"
        },
        {
          "indexed": true,
          "internalType": "address",
          "name": "operator",
          "type": "address"
        },
        {
          "indexed": false,
          "internalType": "bool",
          "name": "approved",
          "type": "bool"
        }
      ],
      "name": "ApprovalForAll",
      "type": "event"
    },
    {
      "anonymous": false,
      "inputs": [
        {
          "indexed": false,
          "internalType": "uint256",
          "name": "_fromTokenId",
          "type": "uint256"
        },
        {
          "indexed": false,
          "internalType": "uint256",
          "name": "_toTokenId",
          "type": "uint256"
        }
      ],
      "name": "BatchMetadataUpdate",
      "type": "event"
    },
    {
      "anonymous": false,
      "inputs": [
        {
          "indexed": false,
          "internalType": "uint256",
          "name": "_tokenId",
          "type": "uint256"
        }
      ],
      "name": "MetadataUpdate",
      "type": "event"
    },
    {
      "anonymous": false,
      "inputs": [
        {
          "indexed": true,
          "internalType": "address",
          "name": "previousOwner",
          "type": "address"
        },
        {
          "indexed": true,
          "internalType": "address",
          "name": "newOwner",
          "type": "address"
        }
      ],
      "name": "OwnershipTransferred",
      "type": "event"
    },
    {
      "anonymous": false,
      "inputs": [
        {
          "indexed": true,
          "internalType": "address",
          "name": "from",
          "type": "address"
        },
        {
          "indexed": true,
          "internalType": "address",
          "name": "to",
          "type": "address"
        },
        {
          "indexed": true,
          "internalType": "uint256",
          "name": "tokenId",
          "type": "uint256"
        }
      ],
      "name": "Transfer",
      "type": "event"
    },
    {
      "inputs": [],
      "name": "HammerPrice",
      "outputs": [
        {
          "internalType": "address",
          "name": "paymentCurrency1",
          "type": "address"
        },
        {
          "internalType": "address",
          "name": "paymentCurrency2",
          "type": "address"
        },
        {
          "internalType": "uint256",
          "name": "amount1",
          "type": "uint256"
        },
        {
          "internalType": "uint256",
          "name": "amount2",
          "type": "uint256"
        }
      ],
      "stateMutability": "view",
      "type": "function",
      "constant": true
    },
    {
      "inputs": [
        {
          "internalType": "address",
          "name": "to",
          "type": "address"
        },
        {
          "internalType": "uint256",
          "name": "tokenId",
          "type": "uint256"
        }
      ],
      "name": "approve",
      "outputs": [],
      "stateMutability": "nonpayable",
      "type": "function"
    },
    {
      "inputs": [
        {
          "internalType": "address",
          "name": "owner",
          "type": "address"
        }
      ],
      "name": "balanceOf",
      "outputs": [
        {
          "internalType": "uint256",
          "name": "",
          "type": "uint256"
        }
      ],
      "stateMutability": "view",
      "type": "function",
      "constant": true
    },
    {
      "inputs": [
        {
          "internalType": "uint256",
          "name": "tokenId",
          "type": "uint256"
        }
      ],
      "name": "getApproved",
      "outputs": [
        {
          "internalType": "address",
          "name": "",
          "type": "address"
        }
      ],
      "stateMutability": "view",
      "type": "function",
      "constant": true
    },
    {
      "inputs": [
        {
          "internalType": "address",
          "name": "owner",
          "type": "address"
        },
        {
          "internalType": "address",
          "name": "operator",
          "type": "address"
        }
      ],
      "name": "isApprovedForAll",
      "outputs": [
        {
          "internalType": "bool",
          "name": "",
          "type": "bool"
        }
      ],
      "stateMutability": "view",
      "type": "function",
      "constant": true
    },
    {
      "inputs": [],
      "name": "name",
      "outputs": [
        {
          "internalType": "string",
          "name": "",
          "type": "string"
        }
      ],
      "stateMutability": "view",
      "type": "function",
      "constant": true
    },
    {
      "inputs": [],
      "name": "owner",
      "outputs": [
        {
          "internalType": "address",
          "name": "",
          "type": "address"
        }
      ],
      "stateMutability": "view",
      "type": "function",
      "constant": true
    },
    {
      "inputs": [
        {
          "internalType": "uint256",
          "name": "tokenId",
          "type": "uint256"
        }
      ],
      "name": "ownerOf",
      "outputs": [
        {
          "internalType": "address",
          "name": "",
          "type": "address"
        }
      ],
      "stateMutability": "view",
      "type": "function",
      "constant": true
    },
    {
      "inputs": [],
      "name": "renounceOwnership",
      "outputs": [],
      "stateMutability": "nonpayable",
      "type": "function"
    },
    {
      "inputs": [
        {
          "internalType": "address",
          "name": "from",
          "type": "address"
        },
        {
          "internalType": "address",
          "name": "to",
          "type": "address"
        },
        {
          "internalType": "uint256",
          "name": "tokenId",
          "type": "uint256"
        }
      ],
      "name": "safeTransferFrom",
      "outputs": [],
      "stateMutability": "nonpayable",
      "type": "function"
    },
    {
      "inputs": [
        {
          "internalType": "address",
          "name": "from",
          "type": "address"
        },
        {
          "internalType": "address",
          "name": "to",
          "type": "address"
        },
        {
          "internalType": "uint256",
          "name": "tokenId",
          "type": "uint256"
        },
        {
          "internalType": "bytes",
          "name": "data",
          "type": "bytes"
        }
      ],
      "name": "safeTransferFrom",
      "outputs": [],
      "stateMutability": "nonpayable",
      "type": "function"
    },
    {
      "inputs": [
        {
          "internalType": "address",
          "name": "operator",
          "type": "address"
        },
        {
          "internalType": "bool",
          "name": "approved",
          "type": "bool"
        }
      ],
      "name": "setApprovalForAll",
      "outputs": [],
      "stateMutability": "nonpayable",
      "type": "function"
    },
    {
      "inputs": [],
      "name": "symbol",
      "outputs": [
        {
          "internalType": "string",
          "name": "",
          "type": "string"
        }
      ],
      "stateMutability": "view",
      "type": "function",
      "constant": true
    },
    {
      "inputs": [
        {
          "internalType": "uint256",
          "name": "index",
          "type": "uint256"
        }
      ],
      "name": "tokenByIndex",
      "outputs": [
        {
          "internalType": "uint256",
          "name": "",
          "type": "uint256"
        }
      ],
      "stateMutability": "view",
      "type": "function",
      "constant": true
    },
    {
      "inputs": [
        {
          "internalType": "address",
          "name": "owner",
          "type": "address"
        },
        {
          "internalType": "uint256",
          "name": "index",
          "type": "uint256"
        }
      ],
      "name": "tokenOfOwnerByIndex",
      "outputs": [
        {
          "internalType": "uint256",
          "name": "",
          "type": "uint256"
        }
      ],
      "stateMutability": "view",
      "type": "function",
      "constant": true
    },
    {
      "inputs": [],
      "name": "totalSupply",
      "outputs": [
        {
          "internalType": "uint256",
          "name": "",
          "type": "uint256"
        }
      ],
      "stateMutability": "view",
      "type": "function",
      "constant": true
    },
    {
      "inputs": [
        {
          "internalType": "address",
          "name": "from",
          "type": "address"
        },
        {
          "internalType": "address",
          "name": "to",
          "type": "address"
        },
        {
          "internalType": "uint256",
          "name": "tokenId",
          "type": "uint256"
        }
      ],
      "name": "transferFrom",
      "outputs": [],
      "stateMutability": "nonpayable",
      "type": "function"
    },
    {
      "inputs": [
        {
          "internalType": "address",
          "name": "newOwner",
          "type": "address"
        }
      ],
      "name": "transferOwnership",
      "outputs": [],
      "stateMutability": "nonpayable",
      "type": "function"
    },
    {
      "inputs": [
        {
          "internalType": "address",
          "name": "to",
          "type": "address"
        },
        {
          "internalType": "string",
          "name": "uri",
          "type": "string"
        }
      ],
      "name": "safeMint",
      "outputs": [],
      "stateMutability": "nonpayable",
      "type": "function"
    },
    {
      "inputs": [],
      "name": "buyHammer",
      "outputs": [],
      "stateMutability": "nonpayable",
      "type": "function"
    },
    {
      "inputs": [
        {
          "internalType": "uint256",
          "name": "tokenId",
          "type": "uint256"
        }
      ],
      "name": "tokenURI",
      "outputs": [
        {
          "internalType": "string",
          "name": "",
          "type": "string"
        }
      ],
      "stateMutability": "view",
      "type": "function",
      "constant": true
    },
    {
      "inputs": [
        {
          "internalType": "bytes4",
          "name": "interfaceId",
          "type": "bytes4"
        }
      ],
      "name": "supportsInterface",
      "outputs": [
        {
          "internalType": "bool",
          "name": "",
          "type": "bool"
        }
      ],
      "stateMutability": "view",
      "type": "function",
      "constant": true
    }
  ],
  "bytecode": "0x60806040523480156200001157600080fd5b50604051620044343803806200443483398181016040528101906200003791906200044e565b6040518060400160405280600681526020017f48616d6d657200000000000000000000000000000000000000000000000000008152506040518060400160405280600381526020017f48414d00000000000000000000000000000000000000000000000000000000008152508160009080519060200190620000bb92919062000370565b508060019080519060200190620000d492919062000370565b505050620000f7620000eb620002a260201b60201c565b620002aa60201b60201c565b600073ffffffffffffffffffffffffffffffffffffffff168473ffffffffffffffffffffffffffffffffffffffff1614158015620001625750600073ffffffffffffffffffffffffffffffffffffffff168373ffffffffffffffffffffffffffffffffffffffff1614155b620001a4576040517f08c379a00000000000000000000000000000000000000000000000000000000081526004016200019b90620004e1565b60405180910390fd5b60405180608001604052808573ffffffffffffffffffffffffffffffffffffffff1681526020018473ffffffffffffffffffffffffffffffffffffffff16815260200183815260200182815250600d60008201518160000160006101000a81548173ffffffffffffffffffffffffffffffffffffffff021916908373ffffffffffffffffffffffffffffffffffffffff16021790555060208201518160010160006101000a81548173ffffffffffffffffffffffffffffffffffffffff021916908373ffffffffffffffffffffffffffffffffffffffff1602179055506040820151816002015560608201518160030155905050505050506200063a565b600033905090565b6000600b60009054906101000a900473ffffffffffffffffffffffffffffffffffffffff16905081600b60006101000a81548173ffffffffffffffffffffffffffffffffffffffff021916908373ffffffffffffffffffffffffffffffffffffffff1602179055508173ffffffffffffffffffffffffffffffffffffffff168173ffffffffffffffffffffffffffffffffffffffff167f8be0079c531659141344cd1fd0a4f28419497f9722a3daafe3b4186f6b6457e060405160405180910390a35050565b8280546200037e9062000552565b90600052602060002090601f016020900481019282620003a25760008555620003ee565b82601f10620003bd57805160ff1916838001178555620003ee565b82800160010185558215620003ee579182015b82811115620003ed578251825591602001919060010190620003d0565b5b509050620003fd919062000401565b5090565b5b808211156200041c57600081600090555060010162000402565b5090565b600081519050620004318162000606565b92915050565b600081519050620004488162000620565b92915050565b600080600080608085870312156200046557600080fd5b6000620004758782880162000420565b9450506020620004888782880162000420565b93505060406200049b8782880162000437565b9250506060620004ae8782880162000437565b91505092959194509250565b6000620004c960268362000503565b9150620004d682620005b7565b604082019050919050565b60006020820190508181036000830152620004fc81620004ba565b9050919050565b600082825260208201905092915050565b6000620005218262000528565b9050919050565b600073ffffffffffffffffffffffffffffffffffffffff82169050919050565b6000819050919050565b600060028204905060018216806200056b57607f821691505b6020821081141562000582576200058162000588565b5b50919050565b7f4e487b7100000000000000000000000000000000000000000000000000000000600052602260045260246000fd5b7f546f6b656e206164647265737365732063616e6e6f742062652061646472657360008201527f73207a65726f0000000000000000000000000000000000000000000000000000602082015250565b620006118162000514565b81146200061d57600080fd5b50565b6200062b8162000548565b81146200063757600080fd5b50565b613dea806200064a6000396000f3fe608060405234801561001057600080fd5b50600436106101425760003560e01c8063715018a6116100b8578063b88d4fde1161007c578063b88d4fde14610363578063c87b56dd1461037f578063d1d852ba146103af578063d204c45e146103d0578063e985e9c5146103ec578063f2fde38b1461041c57610142565b8063715018a6146102f75780638da5cb5b1461030157806394af75621461031f57806395d89b4114610329578063a22cb4651461034757610142565b806323b872dd1161010a57806323b872dd146101ff5780632f745c591461021b57806342842e0e1461024b5780634f6ccce7146102675780636352211e1461029757806370a08231146102c757610142565b806301ffc9a71461014757806306fdde0314610177578063081812fc14610195578063095ea7b3146101c557806318160ddd146101e1575b600080fd5b610161600480360381019061015c9190612c3e565b610438565b60405161016e91906131bf565b60405180910390f35b61017f61044a565b60405161018c91906131da565b60405180910390f35b6101af60048036038101906101aa9190612c90565b6104dc565b6040516101bc91906130dc565b60405180910390f35b6101df60048036038101906101da9190612bd9565b610522565b005b6101e961063a565b6040516101f6919061347c565b60405180910390f35b61021960048036038101906102149190612a7f565b610647565b005b61023560048036038101906102309190612bd9565b6106a7565b604051610242919061347c565b60405180910390f35b61026560048036038101906102609190612a7f565b61074c565b005b610281600480360381019061027c9190612c90565b61076c565b60405161028e919061347c565b60405180910390f35b6102b160048036038101906102ac9190612c90565b610803565b6040516102be91906130dc565b60405180910390f35b6102e160048036038101906102dc9190612a1a565b61088a565b6040516102ee919061347c565b60405180910390f35b6102ff610942565b005b610309610956565b60405161031691906130dc565b60405180910390f35b610327610980565b005b610331610bc6565b60405161033e91906131da565b60405180910390f35b610361600480360381019061035c9190612b49565b610c58565b005b61037d60048036038101906103789190612ace565b610c6e565b005b61039960048036038101906103949190612c90565b610cd0565b6040516103a691906131da565b60405180910390f35b6103b7610d2a565b6040516103c7949392919061317a565b60405180910390f35b6103ea60048036038101906103e59190612b85565b610d88565b005b61040660048036038101906104019190612a43565b610dc1565b60405161041391906131bf565b60405180910390f35b61043660048036038101906104319190612a1a565b610e55565b005b600061044382610ed9565b9050919050565b6060600080546104599061364b565b80601f01602080910402602001604051908101604052809291908181526020018280546104859061364b565b80156104d25780601f106104a7576101008083540402835291602001916104d2565b820191906000526020600020905b8154815290600101906020018083116104b557829003601f168201915b5050505050905090565b60006104e782610f3a565b6004600083815260200190815260200160002060009054906101000a900473ffffffffffffffffffffffffffffffffffffffff169050919050565b600061052d82610803565b90508073ffffffffffffffffffffffffffffffffffffffff168373ffffffffffffffffffffffffffffffffffffffff16141561059e576040517f08c379a0000000000000000000000000000000000000000000000000000000008152600401610595906133bc565b60405180910390fd5b8073ffffffffffffffffffffffffffffffffffffffff166105bd610f85565b73ffffffffffffffffffffffffffffffffffffffff1614806105ec57506105eb816105e6610f85565b610dc1565b5b61062b576040517f08c379a0000000000000000000000000000000000000000000000000000000008152600401610622906133fc565b60405180910390fd5b6106358383610f8d565b505050565b6000600880549050905090565b610658610652610f85565b82611046565b610697576040517f08c379a000000000000000000000000000000000000000000000000000000000815260040161068e906131fc565b60405180910390fd5b6106a28383836110db565b505050565b60006106b28361088a565b82106106f3576040517f08c379a00000000000000000000000000000000000000000000000000000000081526004016106ea9061321c565b60405180910390fd5b600660008473ffffffffffffffffffffffffffffffffffffffff1673ffffffffffffffffffffffffffffffffffffffff168152602001908152602001600020600083815260200190815260200160002054905092915050565b61076783838360405180602001604052806000815250610c6e565b505050565b600061077661063a565b82106107b7576040517f08c379a00000000000000000000000000000000000000000000000000000000081526004016107ae9061341c565b60405180910390fd5b600882815481106107f1577f4e487b7100000000000000000000000000000000000000000000000000000000600052603260045260246000fd5b90600052602060002001549050919050565b60008061080f836113d5565b9050600073ffffffffffffffffffffffffffffffffffffffff168173ffffffffffffffffffffffffffffffffffffffff161415610881576040517f08c379a00000000000000000000000000000000000000000000000000000000081526004016108789061339c565b60405180910390fd5b80915050919050565b60008073ffffffffffffffffffffffffffffffffffffffff168273ffffffffffffffffffffffffffffffffffffffff1614156108fb576040517f08c379a00000000000000000000000000000000000000000000000000000000081526004016108f2906132fc565b60405180910390fd5b600360008373ffffffffffffffffffffffffffffffffffffffff1673ffffffffffffffffffffffffffffffffffffffff168152602001908152602001600020549050919050565b61094a611412565b6109546000611490565b565b6000600b60009054906101000a900473ffffffffffffffffffffffffffffffffffffffff16905090565b600d60000160009054906101000a900473ffffffffffffffffffffffffffffffffffffffff1673ffffffffffffffffffffffffffffffffffffffff166323b872dd3330600d600201546040518463ffffffff1660e01b81526004016109e7939291906130f7565b602060405180830381600087803b158015610a0157600080fd5b505af1158015610a15573d6000803e3d6000fd5b505050506040513d601f19601f82011682018060405250810190610a399190612c15565b610a78576040517f08c379a0000000000000000000000000000000000000000000000000000000008152600401610a6f906133dc565b60405180910390fd5b600d60010160009054906101000a900473ffffffffffffffffffffffffffffffffffffffff1673ffffffffffffffffffffffffffffffffffffffff166323b872dd3330600d600301546040518463ffffffff1660e01b8152600401610adf939291906130f7565b602060405180830381600087803b158015610af957600080fd5b505af1158015610b0d573d6000803e3d6000fd5b505050506040513d601f19601f82011682018060405250810190610b319190612c15565b610b70576040517f08c379a0000000000000000000000000000000000000000000000000000000008152600401610b679061345c565b60405180910390fd5b6000610b7c600c611556565b9050610b88600c611564565b610b92338261157a565b610bc381610b9f83611598565b604051602001610baf91906130af565b6040516020818303038152906040526116bc565b50565b606060018054610bd59061364b565b80601f0160208091040260200160405190810160405280929190818152602001828054610c019061364b565b8015610c4e5780601f10610c2357610100808354040283529160200191610c4e565b820191906000526020600020905b815481529060010190602001808311610c3157829003601f168201915b5050505050905090565b610c6a610c63610f85565b8383611767565b5050565b610c7f610c79610f85565b83611046565b610cbe576040517f08c379a0000000000000000000000000000000000000000000000000000000008152600401610cb5906131fc565b60405180910390fd5b610cca848484846118d4565b50505050565b6060610cdb82611930565b610d1a576040517f08c379a0000000000000000000000000000000000000000000000000000000008152600401610d119061337c565b60405180910390fd5b610d2382611971565b9050919050565b600d8060000160009054906101000a900473ffffffffffffffffffffffffffffffffffffffff16908060010160009054906101000a900473ffffffffffffffffffffffffffffffffffffffff16908060020154908060030154905084565b610d90611412565b6000610d9c600c611556565b9050610da8600c611564565b610db2838261157a565b610dbc81836116bc565b505050565b6000600560008473ffffffffffffffffffffffffffffffffffffffff1673ffffffffffffffffffffffffffffffffffffffff16815260200190815260200160002060008373ffffffffffffffffffffffffffffffffffffffff1673ffffffffffffffffffffffffffffffffffffffff16815260200190815260200160002060009054906101000a900460ff16905092915050565b610e5d611412565b600073ffffffffffffffffffffffffffffffffffffffff168173ffffffffffffffffffffffffffffffffffffffff161415610ecd576040517f08c379a0000000000000000000000000000000000000000000000000000000008152600401610ec49061325c565b60405180910390fd5b610ed681611490565b50565b6000634906490660e01b7bffffffffffffffffffffffffffffffffffffffffffffffffffffffff1916827bffffffffffffffffffffffffffffffffffffffffffffffffffffffff19161480610f335750610f3282611a84565b5b9050919050565b610f4381611930565b610f82576040517f08c379a0000000000000000000000000000000000000000000000000000000008152600401610f799061339c565b60405180910390fd5b50565b600033905090565b816004600083815260200190815260200160002060006101000a81548173ffffffffffffffffffffffffffffffffffffffff021916908373ffffffffffffffffffffffffffffffffffffffff160217905550808273ffffffffffffffffffffffffffffffffffffffff1661100083610803565b73ffffffffffffffffffffffffffffffffffffffff167f8c5be1e5ebec7d5bd14f71427d1e84f3dd0314c0f7b2291e5b200ac8c7c3b92560405160405180910390a45050565b60008061105283610803565b90508073ffffffffffffffffffffffffffffffffffffffff168473ffffffffffffffffffffffffffffffffffffffff16148061109457506110938185610dc1565b5b806110d257508373ffffffffffffffffffffffffffffffffffffffff166110ba846104dc565b73ffffffffffffffffffffffffffffffffffffffff16145b91505092915050565b8273ffffffffffffffffffffffffffffffffffffffff166110fb82610803565b73ffffffffffffffffffffffffffffffffffffffff1614611151576040517f08c379a00000000000000000000000000000000000000000000000000000000081526004016111489061327c565b60405180910390fd5b600073ffffffffffffffffffffffffffffffffffffffff168273ffffffffffffffffffffffffffffffffffffffff1614156111c1576040517f08c379a00000000000000000000000000000000000000000000000000000000081526004016111b8906132bc565b60405180910390fd5b6111ce8383836001611afe565b8273ffffffffffffffffffffffffffffffffffffffff166111ee82610803565b73ffffffffffffffffffffffffffffffffffffffff1614611244576040517f08c379a000000000000000000000000000000000000000000000000000000000815260040161123b9061327c565b60405180910390fd5b6004600082815260200190815260200160002060006101000a81549073ffffffffffffffffffffffffffffffffffffffff02191690556001600360008573ffffffffffffffffffffffffffffffffffffffff1673ffffffffffffffffffffffffffffffffffffffff168152602001908152602001600020600082825403925050819055506001600360008473ffffffffffffffffffffffffffffffffffffffff1673ffffffffffffffffffffffffffffffffffffffff16815260200190815260200160002060008282540192505081905550816002600083815260200190815260200160002060006101000a81548173ffffffffffffffffffffffffffffffffffffffff021916908373ffffffffffffffffffffffffffffffffffffffff160217905550808273ffffffffffffffffffffffffffffffffffffffff168473ffffffffffffffffffffffffffffffffffffffff167fddf252ad1be2c89b69c2b068fc378daa952ba7f163c4a11628f55a4df523b3ef60405160405180910390a46113d08383836001611b10565b505050565b60006002600083815260200190815260200160002060009054906101000a900473ffffffffffffffffffffffffffffffffffffffff169050919050565b61141a610f85565b73ffffffffffffffffffffffffffffffffffffffff16611438610956565b73ffffffffffffffffffffffffffffffffffffffff161461148e576040517f08c379a00000000000000000000000000000000000000000000000000000000081526004016114859061335c565b60405180910390fd5b565b6000600b60009054906101000a900473ffffffffffffffffffffffffffffffffffffffff16905081600b60006101000a81548173ffffffffffffffffffffffffffffffffffffffff021916908373ffffffffffffffffffffffffffffffffffffffff1602179055508173ffffffffffffffffffffffffffffffffffffffff168173ffffffffffffffffffffffffffffffffffffffff167f8be0079c531659141344cd1fd0a4f28419497f9722a3daafe3b4186f6b6457e060405160405180910390a35050565b600081600001549050919050565b6001816000016000828254019250508190555050565b611594828260405180602001604052806000815250611b16565b5050565b6060600060016115a784611b71565b01905060008167ffffffffffffffff8111156115ec577f4e487b7100000000000000000000000000000000000000000000000000000000600052604160045260246000fd5b6040519080825280601f01601f19166020018201604052801561161e5781602001600182028036833780820191505090505b509050600082602001820190505b6001156116b1578080600190039150507f3031323334353637383961626364656600000000000000000000000000000000600a86061a8153600a858161169b577f4e487b7100000000000000000000000000000000000000000000000000000000600052601260045260246000fd5b04945060008514156116ac576116b1565b61162c565b819350505050919050565b6116c582611930565b611704576040517f08c379a00000000000000000000000000000000000000000000000000000000081526004016116fb9061331c565b60405180910390fd5b80600a6000848152602001908152602001600020908051906020019061172b929190612829565b507ff8e1a15aba9398e019f0b49df1a4fde98ee17ae345cb5f6b5e2c27f5033e8ce78260405161175b919061347c565b60405180910390a15050565b8173ffffffffffffffffffffffffffffffffffffffff168373ffffffffffffffffffffffffffffffffffffffff1614156117d6576040517f08c379a00000000000000000000000000000000000000000000000000000000081526004016117cd906132dc565b60405180910390fd5b80600560008573ffffffffffffffffffffffffffffffffffffffff1673ffffffffffffffffffffffffffffffffffffffff16815260200190815260200160002060008473ffffffffffffffffffffffffffffffffffffffff1673ffffffffffffffffffffffffffffffffffffffff16815260200190815260200160002060006101000a81548160ff0219169083151502179055508173ffffffffffffffffffffffffffffffffffffffff168373ffffffffffffffffffffffffffffffffffffffff167f17307eab39ab6107e8899845ad3d59bd9653f200f220920489ca2b5937696c31836040516118c791906131bf565b60405180910390a3505050565b6118df8484846110db565b6118eb84848484611da8565b61192a576040517f08c379a00000000000000000000000000000000000000000000000000000000081526004016119219061323c565b60405180910390fd5b50505050565b60008073ffffffffffffffffffffffffffffffffffffffff16611952836113d5565b73ffffffffffffffffffffffffffffffffffffffff1614159050919050565b606061197c82610f3a565b6000600a6000848152602001908152602001600020805461199c9061364b565b80601f01602080910402602001604051908101604052809291908181526020018280546119c89061364b565b8015611a155780601f106119ea57610100808354040283529160200191611a15565b820191906000526020600020905b8154815290600101906020018083116119f857829003601f168201915b505050505090506000611a26611f3f565b9050600081511415611a3c578192505050611a7f565b600082511115611a71578082604051602001611a5992919061308b565b60405160208183030381529060405292505050611a7f565b611a7a84611f56565b925050505b919050565b60007f780e9d63000000000000000000000000000000000000000000000000000000007bffffffffffffffffffffffffffffffffffffffffffffffffffffffff1916827bffffffffffffffffffffffffffffffffffffffffffffffffffffffff19161480611af75750611af682611fbe565b5b9050919050565b611b0a848484846120a0565b50505050565b50505050565b611b208383612200565b611b2d6000848484611da8565b611b6c576040517f08c379a0000000000000000000000000000000000000000000000000000000008152600401611b639061323c565b60405180910390fd5b505050565b600080600090507a184f03e93ff9f4daa797ed6e38ed64bf6a1f0100000000000000008310611bf5577a184f03e93ff9f4daa797ed6e38ed64bf6a1f0100000000000000008381611beb577f4e487b7100000000000000000000000000000000000000000000000000000000600052601260045260246000fd5b0492506040810190505b6d04ee2d6d415b85acef81000000008310611c58576d04ee2d6d415b85acef81000000008381611c4e577f4e487b7100000000000000000000000000000000000000000000000000000000600052601260045260246000fd5b0492506020810190505b662386f26fc100008310611cad57662386f26fc100008381611ca3577f4e487b7100000000000000000000000000000000000000000000000000000000600052601260045260246000fd5b0492506010810190505b6305f5e1008310611cfc576305f5e1008381611cf2577f4e487b7100000000000000000000000000000000000000000000000000000000600052601260045260246000fd5b0492506008810190505b6127108310611d47576127108381611d3d577f4e487b7100000000000000000000000000000000000000000000000000000000600052601260045260246000fd5b0492506004810190505b60648310611d905760648381611d86577f4e487b7100000000000000000000000000000000000000000000000000000000600052601260045260246000fd5b0492506002810190505b600a8310611d9f576001810190505b80915050919050565b6000611dc98473ffffffffffffffffffffffffffffffffffffffff1661241e565b15611f32578373ffffffffffffffffffffffffffffffffffffffff1663150b7a02611df2610f85565b8786866040518563ffffffff1660e01b8152600401611e14949392919061312e565b602060405180830381600087803b158015611e2e57600080fd5b505af1925050508015611e5f57506040513d601f19601f82011682018060405250810190611e5c9190612c67565b60015b611ee2573d8060008114611e8f576040519150601f19603f3d011682016040523d82523d6000602084013e611e94565b606091505b50600081511415611eda576040517f08c379a0000000000000000000000000000000000000000000000000000000008152600401611ed19061323c565b60405180910390fd5b805181602001fd5b63150b7a0260e01b7bffffffffffffffffffffffffffffffffffffffffffffffffffffffff1916817bffffffffffffffffffffffffffffffffffffffffffffffffffffffff191614915050611f37565b600190505b949350505050565b606060405180602001604052806000815250905090565b6060611f6182610f3a565b6000611f6b611f3f565b90506000815111611f8b5760405180602001604052806000815250611fb6565b80611f9584611598565b604051602001611fa692919061308b565b6040516020818303038152906040525b915050919050565b60007f80ac58cd000000000000000000000000000000000000000000000000000000007bffffffffffffffffffffffffffffffffffffffffffffffffffffffff1916827bffffffffffffffffffffffffffffffffffffffffffffffffffffffff1916148061208957507f5b5e139f000000000000000000000000000000000000000000000000000000007bffffffffffffffffffffffffffffffffffffffffffffffffffffffff1916827bffffffffffffffffffffffffffffffffffffffffffffffffffffffff1916145b80612099575061209882612441565b5b9050919050565b6120ac848484846124ab565b60018111156120f0576040517f08c379a00000000000000000000000000000000000000000000000000000000081526004016120e79061343c565b60405180910390fd5b6000829050600073ffffffffffffffffffffffffffffffffffffffff168573ffffffffffffffffffffffffffffffffffffffff16141561213857612133816124b1565b612177565b8373ffffffffffffffffffffffffffffffffffffffff168573ffffffffffffffffffffffffffffffffffffffff16146121765761217585826124fa565b5b5b600073ffffffffffffffffffffffffffffffffffffffff168473ffffffffffffffffffffffffffffffffffffffff1614156121ba576121b581612667565b6121f9565b8473ffffffffffffffffffffffffffffffffffffffff168473ffffffffffffffffffffffffffffffffffffffff16146121f8576121f784826127aa565b5b5b5050505050565b600073ffffffffffffffffffffffffffffffffffffffff168273ffffffffffffffffffffffffffffffffffffffff161415612270576040517f08c379a00000000000000000000000000000000000000000000000000000000081526004016122679061333c565b60405180910390fd5b61227981611930565b156122b9576040517f08c379a00000000000000000000000000000000000000000000000000000000081526004016122b09061329c565b60405180910390fd5b6122c7600083836001611afe565b6122d081611930565b15612310576040517f08c379a00000000000000000000000000000000000000000000000000000000081526004016123079061329c565b60405180910390fd5b6001600360008473ffffffffffffffffffffffffffffffffffffffff1673ffffffffffffffffffffffffffffffffffffffff16815260200190815260200160002060008282540192505081905550816002600083815260200190815260200160002060006101000a81548173ffffffffffffffffffffffffffffffffffffffff021916908373ffffffffffffffffffffffffffffffffffffffff160217905550808273ffffffffffffffffffffffffffffffffffffffff16600073ffffffffffffffffffffffffffffffffffffffff167fddf252ad1be2c89b69c2b068fc378daa952ba7f163c4a11628f55a4df523b3ef60405160405180910390a461241a600083836001611b10565b5050565b6000808273ffffffffffffffffffffffffffffffffffffffff163b119050919050565b60007f01ffc9a7000000000000000000000000000000000000000000000000000000007bffffffffffffffffffffffffffffffffffffffffffffffffffffffff1916827bffffffffffffffffffffffffffffffffffffffffffffffffffffffff1916149050919050565b50505050565b6008805490506009600083815260200190815260200160002081905550600881908060018154018082558091505060019003906000526020600020016000909190919091505550565b600060016125078461088a565b6125119190613561565b90506000600760008481526020019081526020016000205490508181146125f6576000600660008673ffffffffffffffffffffffffffffffffffffffff1673ffffffffffffffffffffffffffffffffffffffff168152602001908152602001600020600084815260200190815260200160002054905080600660008773ffffffffffffffffffffffffffffffffffffffff1673ffffffffffffffffffffffffffffffffffffffff168152602001908152602001600020600084815260200190815260200160002081905550816007600083815260200190815260200160002081905550505b6007600084815260200190815260200160002060009055600660008573ffffffffffffffffffffffffffffffffffffffff1673ffffffffffffffffffffffffffffffffffffffff16815260200190815260200160002060008381526020019081526020016000206000905550505050565b6000600160088054905061267b9190613561565b90506000600960008481526020019081526020016000205490506000600883815481106126d1577f4e487b7100000000000000000000000000000000000000000000000000000000600052603260045260246000fd5b906000526020600020015490508060088381548110612719577f4e487b7100000000000000000000000000000000000000000000000000000000600052603260045260246000fd5b90600052602060002001819055508160096000838152602001908152602001600020819055506009600085815260200190815260200160002060009055600880548061278e577f4e487b7100000000000000000000000000000000000000000000000000000000600052603160045260246000fd5b6001900381819060005260206000200160009055905550505050565b60006127b58361088a565b905081600660008573ffffffffffffffffffffffffffffffffffffffff1673ffffffffffffffffffffffffffffffffffffffff168152602001908152602001600020600083815260200190815260200160002081905550806007600084815260200190815260200160002081905550505050565b8280546128359061364b565b90600052602060002090601f016020900481019282612857576000855561289e565b82601f1061287057805160ff191683800117855561289e565b8280016001018555821561289e579182015b8281111561289d578251825591602001919060010190612882565b5b5090506128ab91906128af565b5090565b5b808211156128c85760008160009055506001016128b0565b5090565b60006128df6128da846134bc565b613497565b9050828152602081018484840111156128f757600080fd5b612902848285613609565b509392505050565b600061291d612918846134ed565b613497565b90508281526020810184848401111561293557600080fd5b612940848285613609565b509392505050565b60008135905061295781613d58565b92915050565b60008135905061296c81613d6f565b92915050565b60008151905061298181613d6f565b92915050565b60008135905061299681613d86565b92915050565b6000815190506129ab81613d86565b92915050565b600082601f8301126129c257600080fd5b81356129d28482602086016128cc565b91505092915050565b600082601f8301126129ec57600080fd5b81356129fc84826020860161290a565b91505092915050565b600081359050612a1481613d9d565b92915050565b600060208284031215612a2c57600080fd5b6000612a3a84828501612948565b91505092915050565b60008060408385031215612a5657600080fd5b6000612a6485828601612948565b9250506020612a7585828601612948565b9150509250929050565b600080600060608486031215612a9457600080fd5b6000612aa286828701612948565b9350506020612ab386828701612948565b9250506040612ac486828701612a05565b9150509250925092565b60008060008060808587031215612ae457600080fd5b6000612af287828801612948565b9450506020612b0387828801612948565b9350506040612b1487828801612a05565b925050606085013567ffffffffffffffff811115612b3157600080fd5b612b3d878288016129b1565b91505092959194509250565b60008060408385031215612b5c57600080fd5b6000612b6a85828601612948565b9250506020612b7b8582860161295d565b9150509250929050565b60008060408385031215612b9857600080fd5b6000612ba685828601612948565b925050602083013567ffffffffffffffff811115612bc357600080fd5b612bcf858286016129db565b9150509250929050565b60008060408385031215612bec57600080fd5b6000612bfa85828601612948565b9250506020612c0b85828601612a05565b9150509250929050565b600060208284031215612c2757600080fd5b6000612c3584828501612972565b91505092915050565b600060208284031215612c5057600080fd5b6000612c5e84828501612987565b91505092915050565b600060208284031215612c7957600080fd5b6000612c878482850161299c565b91505092915050565b600060208284031215612ca257600080fd5b6000612cb084828501612a05565b91505092915050565b612cc281613595565b82525050565b612cd1816135a7565b82525050565b6000612ce28261351e565b612cec8185613534565b9350612cfc818560208601613618565b612d058161373b565b840191505092915050565b6000612d1b82613529565b612d258185613545565b9350612d35818560208601613618565b612d3e8161373b565b840191505092915050565b6000612d5482613529565b612d5e8185613556565b9350612d6e818560208601613618565b80840191505092915050565b6000612d87602d83613545565b9150612d928261374c565b604082019050919050565b6000612daa605783613556565b9150612db58261379b565b605782019050919050565b6000612dcd602b83613545565b9150612dd882613810565b604082019050919050565b6000612df0603283613545565b9150612dfb8261385f565b604082019050919050565b6000612e13602683613545565b9150612e1e826138ae565b604082019050919050565b6000612e36602583613545565b9150612e41826138fd565b604082019050919050565b6000612e59601c83613545565b9150612e648261394c565b602082019050919050565b6000612e7c602483613545565b9150612e8782613975565b604082019050919050565b6000612e9f601983613545565b9150612eaa826139c4565b602082019050919050565b6000612ec2602983613545565b9150612ecd826139ed565b604082019050919050565b6000612ee5602e83613545565b9150612ef082613a3c565b604082019050919050565b6000612f08602083613545565b9150612f1382613a8b565b602082019050919050565b6000612f2b600583613556565b9150612f3682613ab4565b600582019050919050565b6000612f4e602083613545565b9150612f5982613add565b602082019050919050565b6000612f71602f83613545565b9150612f7c82613b06565b604082019050919050565b6000612f94601883613545565b9150612f9f82613b55565b602082019050919050565b6000612fb7602183613545565b9150612fc282613b7e565b604082019050919050565b6000612fda602483613545565b9150612fe582613bcd565b604082019050919050565b6000612ffd603d83613545565b915061300882613c1c565b604082019050919050565b6000613020602c83613545565b915061302b82613c6b565b604082019050919050565b6000613043603583613545565b915061304e82613cba565b604082019050919050565b6000613066602483613545565b915061307182613d09565b604082019050919050565b613085816135ff565b82525050565b60006130978285612d49565b91506130a38284612d49565b91508190509392505050565b60006130ba82612d9d565b91506130c68284612d49565b91506130d182612f1e565b915081905092915050565b60006020820190506130f16000830184612cb9565b92915050565b600060608201905061310c6000830186612cb9565b6131196020830185612cb9565b613126604083018461307c565b949350505050565b60006080820190506131436000830187612cb9565b6131506020830186612cb9565b61315d604083018561307c565b818103606083015261316f8184612cd7565b905095945050505050565b600060808201905061318f6000830187612cb9565b61319c6020830186612cb9565b6131a9604083018561307c565b6131b6606083018461307c565b95945050505050565b60006020820190506131d46000830184612cc8565b92915050565b600060208201905081810360008301526131f48184612d10565b905092915050565b6000602082019050818103600083015261321581612d7a565b9050919050565b6000602082019050818103600083015261323581612dc0565b9050919050565b6000602082019050818103600083015261325581612de3565b9050919050565b6000602082019050818103600083015261327581612e06565b9050919050565b6000602082019050818103600083015261329581612e29565b9050919050565b600060208201905081810360008301526132b581612e4c565b9050919050565b600060208201905081810360008301526132d581612e6f565b9050919050565b600060208201905081810360008301526132f581612e92565b9050919050565b6000602082019050818103600083015261331581612eb5565b9050919050565b6000602082019050818103600083015261333581612ed8565b9050919050565b6000602082019050818103600083015261335581612efb565b9050919050565b6000602082019050818103600083015261337581612f41565b9050919050565b6000602082019050818103600083015261339581612f64565b9050919050565b600060208201905081810360008301526133b581612f87565b9050919050565b600060208201905081810360008301526133d581612faa565b9050919050565b600060208201905081810360008301526133f581612fcd565b9050919050565b6000602082019050818103600083015261341581612ff0565b9050919050565b6000602082019050818103600083015261343581613013565b9050919050565b6000602082019050818103600083015261345581613036565b9050919050565b6000602082019050818103600083015261347581613059565b9050919050565b6000602082019050613491600083018461307c565b92915050565b60006134a16134b2565b90506134ad828261367d565b919050565b6000604051905090565b600067ffffffffffffffff8211156134d7576134d661370c565b5b6134e08261373b565b9050602081019050919050565b600067ffffffffffffffff8211156135085761350761370c565b5b6135118261373b565b9050602081019050919050565b600081519050919050565b600081519050919050565b600082825260208201905092915050565b600082825260208201905092915050565b600081905092915050565b600061356c826135ff565b9150613577836135ff565b92508282101561358a576135896136ae565b5b828203905092915050565b60006135a0826135df565b9050919050565b60008115159050919050565b60007fffffffff0000000000000000000000000000000000000000000000000000000082169050919050565b600073ffffffffffffffffffffffffffffffffffffffff82169050919050565b6000819050919050565b82818337600083830152505050565b60005b8381101561363657808201518184015260208101905061361b565b83811115613645576000848401525b50505050565b6000600282049050600182168061366357607f821691505b60208210811415613677576136766136dd565b5b50919050565b6136868261373b565b810181811067ffffffffffffffff821117156136a5576136a461370c565b5b80604052505050565b7f4e487b7100000000000000000000000000000000000000000000000000000000600052601160045260246000fd5b7f4e487b7100000000000000000000000000000000000000000000000000000000600052602260045260246000fd5b7f4e487b7100000000000000000000000000000000000000000000000000000000600052604160045260246000fd5b6000601f19601f8301169050919050565b7f4552433732313a2063616c6c6572206973206e6f7420746f6b656e206f776e6560008201527f72206f7220617070726f76656400000000000000000000000000000000000000602082015250565b7f68747470733a2f2f676174657761792e70696e6174612e636c6f75642f69706660008201527f732f516d59446d38427a796534524d53376839485576314b6f7570616a71586360208201527f73664b5557774d6547767343335a6b412f4567676f3030000000000000000000604082015250565b7f455243373231456e756d657261626c653a206f776e657220696e646578206f7560008201527f74206f6620626f756e6473000000000000000000000000000000000000000000602082015250565b7f4552433732313a207472616e7366657220746f206e6f6e20455243373231526560008201527f63656976657220696d706c656d656e7465720000000000000000000000000000602082015250565b7f4f776e61626c653a206e6577206f776e657220697320746865207a65726f206160008201527f6464726573730000000000000000000000000000000000000000000000000000602082015250565b7f4552433732313a207472616e736665722066726f6d20696e636f72726563742060008201527f6f776e6572000000000000000000000000000000000000000000000000000000602082015250565b7f4552433732313a20746f6b656e20616c7265616479206d696e74656400000000600082015250565b7f4552433732313a207472616e7366657220746f20746865207a65726f2061646460008201527f7265737300000000000000000000000000000000000000000000000000000000602082015250565b7f4552433732313a20617070726f766520746f2063616c6c657200000000000000600082015250565b7f4552433732313a2061646472657373207a65726f206973206e6f74206120766160008201527f6c6964206f776e65720000000000000000000000000000000000000000000000602082015250565b7f45524337323155524953746f726167653a2055524920736574206f66206e6f6e60008201527f6578697374656e7420746f6b656e000000000000000000000000000000000000602082015250565b7f4552433732313a206d696e7420746f20746865207a65726f2061646472657373600082015250565b7f2e6a736f6e000000000000000000000000000000000000000000000000000000600082015250565b7f4f776e61626c653a2063616c6c6572206973206e6f7420746865206f776e6572600082015250565b7f4552433732314d657461646174613a2055524920717565727920666f72206e6f60008201527f6e6578697374656e7420746f6b656e0000000000000000000000000000000000602082015250565b7f4552433732313a20696e76616c696420746f6b656e2049440000000000000000600082015250565b7f4552433732313a20617070726f76616c20746f2063757272656e74206f776e6560008201527f7200000000000000000000000000000000000000000000000000000000000000602082015250565b7f4661696c656420746f207472616e73666572207061796d656e7443757272656e60008201527f6379312100000000000000000000000000000000000000000000000000000000602082015250565b7f4552433732313a20617070726f76652063616c6c6572206973206e6f7420746f60008201527f6b656e206f776e6572206f7220617070726f76656420666f7220616c6c000000602082015250565b7f455243373231456e756d657261626c653a20676c6f62616c20696e646578206f60008201527f7574206f6620626f756e64730000000000000000000000000000000000000000602082015250565b7f455243373231456e756d657261626c653a20636f6e736563757469766520747260008201527f616e7366657273206e6f7420737570706f727465640000000000000000000000602082015250565b7f4661696c656420746f207472616e73666572207061796d656e7443757272656e60008201527f6379322100000000000000000000000000000000000000000000000000000000602082015250565b613d6181613595565b8114613d6c57600080fd5b50565b613d78816135a7565b8114613d8357600080fd5b50565b613d8f816135b3565b8114613d9a57600080fd5b50565b613da6816135ff565b8114613db157600080fd5b5056fea2646970667358221220adafa16f3568da558b55636a62a30e66f5d987ab608c76ca05788c6ac54a65fb64736f6c63430008040033",
  "immutableReferences": {},
  "source": "// SPDX-License-Identifier: MIT\r\npragma solidity ^0.8.4;\r\n\r\nimport \"@openzeppelin/contracts/token/ERC20/IERC20.sol\";\r\nimport \"@openzeppelin/contracts/token/ERC721/ERC721.sol\";\r\nimport \"@openzeppelin/contracts/token/ERC721/extensions/ERC721Enumerable.sol\";\r\nimport \"@openzeppelin/contracts/token/ERC721/extensions/ERC721URIStorage.sol\";\r\nimport \"@openzeppelin/contracts/access/Ownable.sol\";\r\nimport \"@openzeppelin/contracts/utils/Counters.sol\";\r\nimport \"@openzeppelin/contracts/utils/Strings.sol\";\r\n\r\ncontract HammerNFT is ERC721, ERC721Enumerable, ERC721URIStorage, Ownable {\r\n    using Counters for Counters.Counter;\r\n\r\n    Counters.Counter private _tokenIdCounter;\r\n\r\n    struct Payment {\r\n        address paymentCurrency1;\r\n        address paymentCurrency2;\r\n        uint256 amount1;\r\n        uint256 amount2;\r\n    }\r\n\r\n    Payment public HammerPrice;\r\n\r\n    constructor(\r\n        address _paymentCurrency1,\r\n        address _paymentCurrency2,\r\n        uint256 _amount1,\r\n        uint256 _amount2\r\n    ) ERC721(\"Hammer\", \"HAM\") {\r\n        require(\r\n            _paymentCurrency1 != address(0) && _paymentCurrency2 != address(0),\r\n            \"Token addresses cannot be address zero\"\r\n        );\r\n        HammerPrice = Payment(\r\n            _paymentCurrency1,\r\n            _paymentCurrency2,\r\n            _amount1,\r\n            _amount2\r\n        );\r\n    }\r\n\r\n    function safeMint(address to, string memory uri) public onlyOwner {\r\n        uint256 tokenId = _tokenIdCounter.current();\r\n        _tokenIdCounter.increment();\r\n        _safeMint(to, tokenId);\r\n        _setTokenURI(tokenId, uri);\r\n    }\r\n\r\n    function buyHammer() public {\r\n        require(\r\n            IERC20(HammerPrice.paymentCurrency1).transferFrom(\r\n                msg.sender,\r\n                address(this),\r\n                HammerPrice.amount1\r\n            ),\r\n            \"Failed to transfer paymentCurrency1!\"\r\n        );\r\n        require(\r\n            IERC20(HammerPrice.paymentCurrency2).transferFrom(\r\n                msg.sender,\r\n                address(this),\r\n                HammerPrice.amount2\r\n            ),\r\n            \"Failed to transfer paymentCurrency2!\"\r\n        );\r\n\r\n        uint256 tokenId = _tokenIdCounter.current();\r\n        _tokenIdCounter.increment();\r\n        _safeMint(msg.sender, tokenId);\r\n        _setTokenURI(\r\n            tokenId,\r\n            string(\r\n                abi.encodePacked(\r\n                    \"https://gateway.pinata.cloud/ipfs/QmYDm8Bzye4RMS7h9HUv1KoupajqXcsfKUWwMeGvsC3ZkA/Eggo00\",\r\n                    Strings.toString(tokenId),\r\n                    \".json\"\r\n                )\r\n            )\r\n        );\r\n    }\r\n\r\n    // The following functions are overrides required by Solidity.\r\n\r\n    function _beforeTokenTransfer(\r\n        address from,\r\n        address to,\r\n        uint256 tokenId,\r\n        uint256 batchSize\r\n    ) internal override(ERC721, ERC721Enumerable) {\r\n        super._beforeTokenTransfer(from, to, tokenId, batchSize);\r\n    }\r\n\r\n    function _burn(\r\n        uint256 tokenId\r\n    ) internal override(ERC721, ERC721URIStorage) {\r\n        super._burn(tokenId);\r\n    }\r\n\r\n    function tokenURI(\r\n        uint256 tokenId\r\n    ) public view override(ERC721, ERC721URIStorage) returns (string memory) {\r\n        require(\r\n            _exists(tokenId),\r\n            \"ERC721Metadata: URI query for nonexistent token\"\r\n        );\r\n        return super.tokenURI(tokenId);\r\n    }\r\n\r\n    function supportsInterface(\r\n        bytes4 interfaceId\r\n    )\r\n        public\r\n        view\r\n        override(\r\n            ERC721,\r\n            ERC721Enumerable,\r\n            ERC721URIStorage // Add ERC721URIStorage\r\n        )\r\n        returns (bool)\r\n    {\r\n        return super.supportsInterface(interfaceId);\r\n    }\r\n}\r\n",
  "sourcePath": "C:\\Users\\sumer\\OneDrive\\Desktop\\Trading-NFTs\\contracts\\HammerNFT.sol",
  "compiler": {
    "name": "solc",
    "version": "0.8.4+commit.c7e474f2.Emscripten.clang"
  },
  "schemaVersion": "3.4.13",
  "updatedAt": "2023-05-29T12:24:00.455Z",
  "networkType": "ethereum",
  "devdoc": {
    "kind": "dev",
    "methods": {
      "approve(address,uint256)": {
        "details": "See {IERC721-approve}."
      },
      "balanceOf(address)": {
        "details": "See {IERC721-balanceOf}."
      },
      "getApproved(uint256)": {
        "details": "See {IERC721-getApproved}."
      },
      "isApprovedForAll(address,address)": {
        "details": "See {IERC721-isApprovedForAll}."
      },
      "name()": {
        "details": "See {IERC721Metadata-name}."
      },
      "owner()": {
        "details": "Returns the address of the current owner."
      },
      "ownerOf(uint256)": {
        "details": "See {IERC721-ownerOf}."
      },
      "renounceOwnership()": {
        "details": "Leaves the contract without owner. It will not be possible to call `onlyOwner` functions. Can only be called by the current owner. NOTE: Renouncing ownership will leave the contract without an owner, thereby disabling any functionality that is only available to the owner."
      },
      "safeTransferFrom(address,address,uint256)": {
        "details": "See {IERC721-safeTransferFrom}."
      },
      "safeTransferFrom(address,address,uint256,bytes)": {
        "details": "See {IERC721-safeTransferFrom}."
      },
      "setApprovalForAll(address,bool)": {
        "details": "See {IERC721-setApprovalForAll}."
      },
      "symbol()": {
        "details": "See {IERC721Metadata-symbol}."
      },
      "tokenByIndex(uint256)": {
        "details": "See {IERC721Enumerable-tokenByIndex}."
      },
      "tokenOfOwnerByIndex(address,uint256)": {
        "details": "See {IERC721Enumerable-tokenOfOwnerByIndex}."
      },
      "totalSupply()": {
        "details": "See {IERC721Enumerable-totalSupply}."
      },
      "transferFrom(address,address,uint256)": {
        "details": "See {IERC721-transferFrom}."
      },
      "transferOwnership(address)": {
        "details": "Transfers ownership of the contract to a new account (`newOwner`). Can only be called by the current owner."
      }
    },
    "version": 1
  },
  "userdoc": {
    "kind": "user",
    "methods": {},
    "version": 1
  }
}