{
  "contractName": "LumberNFT",
  "abi": [
    {
      "inputs": [
        {
          "internalType": "contract ERC20",
          "name": "_paymentCurrency",
          "type": "address"
        },
        {
          "internalType": "uint256",
          "name": "_amount",
          "type": "uint256"
        }
      ],
      "stateMutability": "nonpayable",
      "type": "constructor"
    },
    {
      "anonymous": false,
      "inputs": [
        {
          "indexed": true,
          "internalType": "address",
          "name": "owner",
          "type": "address"
        },
        {
          "indexed": true,
          "internalType": "address",
          "name": "approved",
          "type": "address"
        },
        {
          "indexed": true,
          "internalType": "uint256",
          "name": "tokenId",
          "type": "uint256"
        }
      ],
      "name": "Approval",
      "type": "event"
    },
    {
      "anonymous": false,
      "inputs": [
        {
          "indexed": true,
          "internalType": "address",
          "name": "owner",
          "type": "address"
        },
        {
          "indexed": true,
          "internalType": "address",
          "name": "operator",
          "type": "address"
        },
        {
          "indexed": false,
          "internalType": "bool",
          "name": "approved",
          "type": "bool"
        }
      ],
      "name": "ApprovalForAll",
      "type": "event"
    },
    {
      "anonymous": false,
      "inputs": [
        {
          "indexed": false,
          "internalType": "uint256",
          "name": "_fromTokenId",
          "type": "uint256"
        },
        {
          "indexed": false,
          "internalType": "uint256",
          "name": "_toTokenId",
          "type": "uint256"
        }
      ],
      "name": "BatchMetadataUpdate",
      "type": "event"
    },
    {
      "anonymous": false,
      "inputs": [
        {
          "indexed": false,
          "internalType": "uint256",
          "name": "_tokenId",
          "type": "uint256"
        }
      ],
      "name": "MetadataUpdate",
      "type": "event"
    },
    {
      "anonymous": false,
      "inputs": [
        {
          "indexed": true,
          "internalType": "address",
          "name": "previousOwner",
          "type": "address"
        },
        {
          "indexed": true,
          "internalType": "address",
          "name": "newOwner",
          "type": "address"
        }
      ],
      "name": "OwnershipTransferred",
      "type": "event"
    },
    {
      "anonymous": false,
      "inputs": [
        {
          "indexed": true,
          "internalType": "address",
          "name": "from",
          "type": "address"
        },
        {
          "indexed": true,
          "internalType": "address",
          "name": "to",
          "type": "address"
        },
        {
          "indexed": true,
          "internalType": "uint256",
          "name": "tokenId",
          "type": "uint256"
        }
      ],
      "name": "Transfer",
      "type": "event"
    },
    {
      "inputs": [],
      "name": "LumberPrice",
      "outputs": [
        {
          "internalType": "contract ERC20",
          "name": "paymentCurrency",
          "type": "address"
        },
        {
          "internalType": "uint256",
          "name": "amount",
          "type": "uint256"
        }
      ],
      "stateMutability": "view",
      "type": "function",
      "constant": true
    },
    {
      "inputs": [
        {
          "internalType": "address",
          "name": "to",
          "type": "address"
        },
        {
          "internalType": "uint256",
          "name": "tokenId",
          "type": "uint256"
        }
      ],
      "name": "approve",
      "outputs": [],
      "stateMutability": "nonpayable",
      "type": "function"
    },
    {
      "inputs": [
        {
          "internalType": "address",
          "name": "owner",
          "type": "address"
        }
      ],
      "name": "balanceOf",
      "outputs": [
        {
          "internalType": "uint256",
          "name": "",
          "type": "uint256"
        }
      ],
      "stateMutability": "view",
      "type": "function",
      "constant": true
    },
    {
      "inputs": [
        {
          "internalType": "uint256",
          "name": "tokenId",
          "type": "uint256"
        }
      ],
      "name": "getApproved",
      "outputs": [
        {
          "internalType": "address",
          "name": "",
          "type": "address"
        }
      ],
      "stateMutability": "view",
      "type": "function",
      "constant": true
    },
    {
      "inputs": [
        {
          "internalType": "address",
          "name": "owner",
          "type": "address"
        },
        {
          "internalType": "address",
          "name": "operator",
          "type": "address"
        }
      ],
      "name": "isApprovedForAll",
      "outputs": [
        {
          "internalType": "bool",
          "name": "",
          "type": "bool"
        }
      ],
      "stateMutability": "view",
      "type": "function",
      "constant": true
    },
    {
      "inputs": [],
      "name": "name",
      "outputs": [
        {
          "internalType": "string",
          "name": "",
          "type": "string"
        }
      ],
      "stateMutability": "view",
      "type": "function",
      "constant": true
    },
    {
      "inputs": [],
      "name": "owner",
      "outputs": [
        {
          "internalType": "address",
          "name": "",
          "type": "address"
        }
      ],
      "stateMutability": "view",
      "type": "function",
      "constant": true
    },
    {
      "inputs": [
        {
          "internalType": "uint256",
          "name": "tokenId",
          "type": "uint256"
        }
      ],
      "name": "ownerOf",
      "outputs": [
        {
          "internalType": "address",
          "name": "",
          "type": "address"
        }
      ],
      "stateMutability": "view",
      "type": "function",
      "constant": true
    },
    {
      "inputs": [],
      "name": "renounceOwnership",
      "outputs": [],
      "stateMutability": "nonpayable",
      "type": "function"
    },
    {
      "inputs": [
        {
          "internalType": "address",
          "name": "from",
          "type": "address"
        },
        {
          "internalType": "address",
          "name": "to",
          "type": "address"
        },
        {
          "internalType": "uint256",
          "name": "tokenId",
          "type": "uint256"
        }
      ],
      "name": "safeTransferFrom",
      "outputs": [],
      "stateMutability": "nonpayable",
      "type": "function"
    },
    {
      "inputs": [
        {
          "internalType": "address",
          "name": "from",
          "type": "address"
        },
        {
          "internalType": "address",
          "name": "to",
          "type": "address"
        },
        {
          "internalType": "uint256",
          "name": "tokenId",
          "type": "uint256"
        },
        {
          "internalType": "bytes",
          "name": "data",
          "type": "bytes"
        }
      ],
      "name": "safeTransferFrom",
      "outputs": [],
      "stateMutability": "nonpayable",
      "type": "function"
    },
    {
      "inputs": [
        {
          "internalType": "address",
          "name": "operator",
          "type": "address"
        },
        {
          "internalType": "bool",
          "name": "approved",
          "type": "bool"
        }
      ],
      "name": "setApprovalForAll",
      "outputs": [],
      "stateMutability": "nonpayable",
      "type": "function"
    },
    {
      "inputs": [],
      "name": "symbol",
      "outputs": [
        {
          "internalType": "string",
          "name": "",
          "type": "string"
        }
      ],
      "stateMutability": "view",
      "type": "function",
      "constant": true
    },
    {
      "inputs": [
        {
          "internalType": "uint256",
          "name": "index",
          "type": "uint256"
        }
      ],
      "name": "tokenByIndex",
      "outputs": [
        {
          "internalType": "uint256",
          "name": "",
          "type": "uint256"
        }
      ],
      "stateMutability": "view",
      "type": "function",
      "constant": true
    },
    {
      "inputs": [
        {
          "internalType": "address",
          "name": "owner",
          "type": "address"
        },
        {
          "internalType": "uint256",
          "name": "index",
          "type": "uint256"
        }
      ],
      "name": "tokenOfOwnerByIndex",
      "outputs": [
        {
          "internalType": "uint256",
          "name": "",
          "type": "uint256"
        }
      ],
      "stateMutability": "view",
      "type": "function",
      "constant": true
    },
    {
      "inputs": [],
      "name": "totalSupply",
      "outputs": [
        {
          "internalType": "uint256",
          "name": "",
          "type": "uint256"
        }
      ],
      "stateMutability": "view",
      "type": "function",
      "constant": true
    },
    {
      "inputs": [
        {
          "internalType": "address",
          "name": "from",
          "type": "address"
        },
        {
          "internalType": "address",
          "name": "to",
          "type": "address"
        },
        {
          "internalType": "uint256",
          "name": "tokenId",
          "type": "uint256"
        }
      ],
      "name": "transferFrom",
      "outputs": [],
      "stateMutability": "nonpayable",
      "type": "function"
    },
    {
      "inputs": [
        {
          "internalType": "address",
          "name": "newOwner",
          "type": "address"
        }
      ],
      "name": "transferOwnership",
      "outputs": [],
      "stateMutability": "nonpayable",
      "type": "function"
    },
    {
      "inputs": [
        {
          "internalType": "address",
          "name": "to",
          "type": "address"
        },
        {
          "internalType": "string",
          "name": "uri",
          "type": "string"
        }
      ],
      "name": "safeMint",
      "outputs": [],
      "stateMutability": "nonpayable",
      "type": "function"
    },
    {
      "inputs": [],
      "name": "buyLumber",
      "outputs": [],
      "stateMutability": "nonpayable",
      "type": "function"
    },
    {
      "inputs": [
        {
          "internalType": "uint256",
          "name": "tokenId",
          "type": "uint256"
        }
      ],
      "name": "tokenURI",
      "outputs": [
        {
          "internalType": "string",
          "name": "",
          "type": "string"
        }
      ],
      "stateMutability": "view",
      "type": "function",
      "constant": true
    },
    {
      "inputs": [
        {
          "internalType": "bytes4",
          "name": "interfaceId",
          "type": "bytes4"
        }
      ],
      "name": "supportsInterface",
      "outputs": [
        {
          "internalType": "bool",
          "name": "",
          "type": "bool"
        }
      ],
      "stateMutability": "view",
      "type": "function",
      "constant": true
    }
  ],
  "bytecode": "0x60806040523480156200001157600080fd5b50604051620041cd380380620041cd83398181016040528101906200003791906200039f565b6040518060400160405280600a81526020017f4c756d626572204e4654000000000000000000000000000000000000000000008152506040518060400160405280600381526020017f4c554d00000000000000000000000000000000000000000000000000000000008152508160009080519060200190620000bb929190620002c1565b508060019080519060200190620000d4929190620002c1565b505050620000f7620000eb620001f360201b60201c565b620001fb60201b60201c565b600073ffffffffffffffffffffffffffffffffffffffff168273ffffffffffffffffffffffffffffffffffffffff1614156200016a576040517f08c379a0000000000000000000000000000000000000000000000000000000008152600401620001619062000407565b60405180910390fd5b60405180604001604052808373ffffffffffffffffffffffffffffffffffffffff16815260200182815250600d60008201518160000160006101000a81548173ffffffffffffffffffffffffffffffffffffffff021916908373ffffffffffffffffffffffffffffffffffffffff16021790555060208201518160010155905050505062000574565b600033905090565b6000600b60009054906101000a900473ffffffffffffffffffffffffffffffffffffffff16905081600b60006101000a81548173ffffffffffffffffffffffffffffffffffffffff021916908373ffffffffffffffffffffffffffffffffffffffff1602179055508173ffffffffffffffffffffffffffffffffffffffff168173ffffffffffffffffffffffffffffffffffffffff167f8be0079c531659141344cd1fd0a4f28419497f9722a3daafe3b4186f6b6457e060405160405180910390a35050565b828054620002cf906200048c565b90600052602060002090601f016020900481019282620002f357600085556200033f565b82601f106200030e57805160ff19168380011785556200033f565b828001600101855582156200033f579182015b828111156200033e57825182559160200191906001019062000321565b5b5090506200034e919062000352565b5090565b5b808211156200036d57600081600090555060010162000353565b5090565b600081519050620003828162000540565b92915050565b60008151905062000399816200055a565b92915050565b60008060408385031215620003b357600080fd5b6000620003c38582860162000371565b9250506020620003d68582860162000388565b9150509250929050565b6000620003ef60238362000429565b9150620003fc82620004f1565b604082019050919050565b600060208201905081810360008301526200042281620003e0565b9050919050565b600082825260208201905092915050565b6000620004478262000462565b9050919050565b60006200045b826200043a565b9050919050565b600073ffffffffffffffffffffffffffffffffffffffff82169050919050565b6000819050919050565b60006002820490506001821680620004a557607f821691505b60208210811415620004bc57620004bb620004c2565b5b50919050565b7f4e487b7100000000000000000000000000000000000000000000000000000000600052602260045260246000fd5b7f546f6b656e20616464726573732063616e27742062652061646472657373207a60008201527f65726f0000000000000000000000000000000000000000000000000000000000602082015250565b6200054b816200044e565b81146200055757600080fd5b50565b620005658162000482565b81146200057157600080fd5b50565b613c4980620005846000396000f3fe608060405234801561001057600080fd5b50600436106101425760003560e01c8063715018a6116100b8578063c87b56dd1161007c578063c87b56dd14610375578063cadd2c8c146103a5578063d071e76a146103c4578063d204c45e146103ce578063e985e9c5146103ea578063f2fde38b1461041a57610142565b8063715018a6146102f75780638da5cb5b1461030157806395d89b411461031f578063a22cb4651461033d578063b88d4fde1461035957610142565b806323b872dd1161010a57806323b872dd146101ff5780632f745c591461021b57806342842e0e1461024b5780634f6ccce7146102675780636352211e1461029757806370a08231146102c757610142565b806301ffc9a71461014757806306fdde0314610177578063081812fc14610195578063095ea7b3146101c557806318160ddd146101e1575b600080fd5b610161600480360381019061015c9190612b18565b610436565b60405161016e9190613040565b60405180910390f35b61017f610448565b60405161018c9190613084565b60405180910390f35b6101af60048036038101906101aa9190612b6a565b6104da565b6040516101bc9190612fa2565b60405180910390f35b6101df60048036038101906101da9190612ab3565b610520565b005b6101e9610638565b6040516101f69190613306565b60405180910390f35b61021960048036038101906102149190612959565b610645565b005b61023560048036038101906102309190612ab3565b6106a5565b6040516102429190613306565b60405180910390f35b61026560048036038101906102609190612959565b61074a565b005b610281600480360381019061027c9190612b6a565b61076a565b60405161028e9190613306565b60405180910390f35b6102b160048036038101906102ac9190612b6a565b610801565b6040516102be9190612fa2565b60405180910390f35b6102e160048036038101906102dc91906128f4565b610888565b6040516102ee9190613306565b60405180910390f35b6102ff610940565b005b610309610954565b6040516103169190612fa2565b60405180910390f35b61032761097e565b6040516103349190613084565b60405180910390f35b61035760048036038101906103529190612a23565b610a10565b005b610373600480360381019061036e91906129a8565b610a26565b005b61038f600480360381019061038a9190612b6a565b610a88565b60405161039c9190613084565b60405180910390f35b6103ad610ae2565b6040516103bb92919061305b565b60405180910390f35b6103cc610b14565b005b6103e860048036038101906103e39190612a5f565b610c62565b005b61040460048036038101906103ff919061291d565b610c9b565b6040516104119190613040565b60405180910390f35b610434600480360381019061042f91906128f4565b610d2f565b005b600061044182610db3565b9050919050565b606060008054610457906134f9565b80601f0160208091040260200160405190810160405280929190818152602001828054610483906134f9565b80156104d05780601f106104a5576101008083540402835291602001916104d0565b820191906000526020600020905b8154815290600101906020018083116104b357829003601f168201915b5050505050905090565b60006104e582610e14565b6004600083815260200190815260200160002060009054906101000a900473ffffffffffffffffffffffffffffffffffffffff169050919050565b600061052b82610801565b90508073ffffffffffffffffffffffffffffffffffffffff168373ffffffffffffffffffffffffffffffffffffffff16141561059c576040517f08c379a000000000000000000000000000000000000000000000000000000000815260040161059390613266565b60405180910390fd5b8073ffffffffffffffffffffffffffffffffffffffff166105bb610e5f565b73ffffffffffffffffffffffffffffffffffffffff1614806105ea57506105e9816105e4610e5f565b610c9b565b5b610629576040517f08c379a0000000000000000000000000000000000000000000000000000000008152600401610620906132a6565b60405180910390fd5b6106338383610e67565b505050565b6000600880549050905090565b610656610650610e5f565b82610f20565b610695576040517f08c379a000000000000000000000000000000000000000000000000000000000815260040161068c906130a6565b60405180910390fd5b6106a0838383610fb5565b505050565b60006106b083610888565b82106106f1576040517f08c379a00000000000000000000000000000000000000000000000000000000081526004016106e8906130c6565b60405180910390fd5b600660008473ffffffffffffffffffffffffffffffffffffffff1673ffffffffffffffffffffffffffffffffffffffff168152602001908152602001600020600083815260200190815260200160002054905092915050565b61076583838360405180602001604052806000815250610a26565b505050565b6000610774610638565b82106107b5576040517f08c379a00000000000000000000000000000000000000000000000000000000081526004016107ac906132c6565b60405180910390fd5b600882815481106107ef577f4e487b7100000000000000000000000000000000000000000000000000000000600052603260045260246000fd5b90600052602060002001549050919050565b60008061080d836112af565b9050600073ffffffffffffffffffffffffffffffffffffffff168173ffffffffffffffffffffffffffffffffffffffff16141561087f576040517f08c379a000000000000000000000000000000000000000000000000000000000815260040161087690613246565b60405180910390fd5b80915050919050565b60008073ffffffffffffffffffffffffffffffffffffffff168273ffffffffffffffffffffffffffffffffffffffff1614156108f9576040517f08c379a00000000000000000000000000000000000000000000000000000000081526004016108f0906131a6565b60405180910390fd5b600360008373ffffffffffffffffffffffffffffffffffffffff1673ffffffffffffffffffffffffffffffffffffffff168152602001908152602001600020549050919050565b6109486112ec565b610952600061136a565b565b6000600b60009054906101000a900473ffffffffffffffffffffffffffffffffffffffff16905090565b60606001805461098d906134f9565b80601f01602080910402602001604051908101604052809291908181526020018280546109b9906134f9565b8015610a065780601f106109db57610100808354040283529160200191610a06565b820191906000526020600020905b8154815290600101906020018083116109e957829003601f168201915b5050505050905090565b610a22610a1b610e5f565b8383611430565b5050565b610a37610a31610e5f565b83610f20565b610a76576040517f08c379a0000000000000000000000000000000000000000000000000000000008152600401610a6d906130a6565b60405180910390fd5b610a828484848461159d565b50505050565b6060610a93826115f9565b610ad2576040517f08c379a0000000000000000000000000000000000000000000000000000000008152600401610ac990613226565b60405180910390fd5b610adb8261163a565b9050919050565b600d8060000160009054906101000a900473ffffffffffffffffffffffffffffffffffffffff16908060010154905082565b600d60000160009054906101000a900473ffffffffffffffffffffffffffffffffffffffff1673ffffffffffffffffffffffffffffffffffffffff166323b872dd3330600d600101546040518463ffffffff1660e01b8152600401610b7b93929190612fbd565b602060405180830381600087803b158015610b9557600080fd5b505af1158015610ba9573d6000803e3d6000fd5b505050506040513d601f19601f82011682018060405250810190610bcd9190612aef565b610c0c576040517f08c379a0000000000000000000000000000000000000000000000000000000008152600401610c0390613286565b60405180910390fd5b6000610c18600c61174d565b9050610c24600c61175b565b610c2e3382611771565b610c5f81610c3b8361178f565b604051602001610c4b9190612f75565b6040516020818303038152906040526118b3565b50565b610c6a6112ec565b6000610c76600c61174d565b9050610c82600c61175b565b610c8c8382611771565b610c9681836118b3565b505050565b6000600560008473ffffffffffffffffffffffffffffffffffffffff1673ffffffffffffffffffffffffffffffffffffffff16815260200190815260200160002060008373ffffffffffffffffffffffffffffffffffffffff1673ffffffffffffffffffffffffffffffffffffffff16815260200190815260200160002060009054906101000a900460ff16905092915050565b610d376112ec565b600073ffffffffffffffffffffffffffffffffffffffff168173ffffffffffffffffffffffffffffffffffffffff161415610da7576040517f08c379a0000000000000000000000000000000000000000000000000000000008152600401610d9e90613106565b60405180910390fd5b610db08161136a565b50565b6000634906490660e01b7bffffffffffffffffffffffffffffffffffffffffffffffffffffffff1916827bffffffffffffffffffffffffffffffffffffffffffffffffffffffff19161480610e0d5750610e0c8261195e565b5b9050919050565b610e1d816115f9565b610e5c576040517f08c379a0000000000000000000000000000000000000000000000000000000008152600401610e5390613246565b60405180910390fd5b50565b600033905090565b816004600083815260200190815260200160002060006101000a81548173ffffffffffffffffffffffffffffffffffffffff021916908373ffffffffffffffffffffffffffffffffffffffff160217905550808273ffffffffffffffffffffffffffffffffffffffff16610eda83610801565b73ffffffffffffffffffffffffffffffffffffffff167f8c5be1e5ebec7d5bd14f71427d1e84f3dd0314c0f7b2291e5b200ac8c7c3b92560405160405180910390a45050565b600080610f2c83610801565b90508073ffffffffffffffffffffffffffffffffffffffff168473ffffffffffffffffffffffffffffffffffffffff161480610f6e5750610f6d8185610c9b565b5b80610fac57508373ffffffffffffffffffffffffffffffffffffffff16610f94846104da565b73ffffffffffffffffffffffffffffffffffffffff16145b91505092915050565b8273ffffffffffffffffffffffffffffffffffffffff16610fd582610801565b73ffffffffffffffffffffffffffffffffffffffff161461102b576040517f08c379a000000000000000000000000000000000000000000000000000000000815260040161102290613126565b60405180910390fd5b600073ffffffffffffffffffffffffffffffffffffffff168273ffffffffffffffffffffffffffffffffffffffff16141561109b576040517f08c379a000000000000000000000000000000000000000000000000000000000815260040161109290613166565b60405180910390fd5b6110a883838360016119d8565b8273ffffffffffffffffffffffffffffffffffffffff166110c882610801565b73ffffffffffffffffffffffffffffffffffffffff161461111e576040517f08c379a000000000000000000000000000000000000000000000000000000000815260040161111590613126565b60405180910390fd5b6004600082815260200190815260200160002060006101000a81549073ffffffffffffffffffffffffffffffffffffffff02191690556001600360008573ffffffffffffffffffffffffffffffffffffffff1673ffffffffffffffffffffffffffffffffffffffff168152602001908152602001600020600082825403925050819055506001600360008473ffffffffffffffffffffffffffffffffffffffff1673ffffffffffffffffffffffffffffffffffffffff16815260200190815260200160002060008282540192505081905550816002600083815260200190815260200160002060006101000a81548173ffffffffffffffffffffffffffffffffffffffff021916908373ffffffffffffffffffffffffffffffffffffffff160217905550808273ffffffffffffffffffffffffffffffffffffffff168473ffffffffffffffffffffffffffffffffffffffff167fddf252ad1be2c89b69c2b068fc378daa952ba7f163c4a11628f55a4df523b3ef60405160405180910390a46112aa83838360016119ea565b505050565b60006002600083815260200190815260200160002060009054906101000a900473ffffffffffffffffffffffffffffffffffffffff169050919050565b6112f4610e5f565b73ffffffffffffffffffffffffffffffffffffffff16611312610954565b73ffffffffffffffffffffffffffffffffffffffff1614611368576040517f08c379a000000000000000000000000000000000000000000000000000000000815260040161135f90613206565b60405180910390fd5b565b6000600b60009054906101000a900473ffffffffffffffffffffffffffffffffffffffff16905081600b60006101000a81548173ffffffffffffffffffffffffffffffffffffffff021916908373ffffffffffffffffffffffffffffffffffffffff1602179055508173ffffffffffffffffffffffffffffffffffffffff168173ffffffffffffffffffffffffffffffffffffffff167f8be0079c531659141344cd1fd0a4f28419497f9722a3daafe3b4186f6b6457e060405160405180910390a35050565b8173ffffffffffffffffffffffffffffffffffffffff168373ffffffffffffffffffffffffffffffffffffffff16141561149f576040517f08c379a000000000000000000000000000000000000000000000000000000000815260040161149690613186565b60405180910390fd5b80600560008573ffffffffffffffffffffffffffffffffffffffff1673ffffffffffffffffffffffffffffffffffffffff16815260200190815260200160002060008473ffffffffffffffffffffffffffffffffffffffff1673ffffffffffffffffffffffffffffffffffffffff16815260200190815260200160002060006101000a81548160ff0219169083151502179055508173ffffffffffffffffffffffffffffffffffffffff168373ffffffffffffffffffffffffffffffffffffffff167f17307eab39ab6107e8899845ad3d59bd9653f200f220920489ca2b5937696c31836040516115909190613040565b60405180910390a3505050565b6115a8848484610fb5565b6115b4848484846119f0565b6115f3576040517f08c379a00000000000000000000000000000000000000000000000000000000081526004016115ea906130e6565b60405180910390fd5b50505050565b60008073ffffffffffffffffffffffffffffffffffffffff1661161b836112af565b73ffffffffffffffffffffffffffffffffffffffff1614159050919050565b606061164582610e14565b6000600a60008481526020019081526020016000208054611665906134f9565b80601f0160208091040260200160405190810160405280929190818152602001828054611691906134f9565b80156116de5780601f106116b3576101008083540402835291602001916116de565b820191906000526020600020905b8154815290600101906020018083116116c157829003601f168201915b5050505050905060006116ef611b87565b9050600081511415611705578192505050611748565b60008251111561173a578082604051602001611722929190612f51565b60405160208183030381529060405292505050611748565b61174384611b9e565b925050505b919050565b600081600001549050919050565b6001816000016000828254019250508190555050565b61178b828260405180602001604052806000815250611c06565b5050565b60606000600161179e84611c61565b01905060008167ffffffffffffffff8111156117e3577f4e487b7100000000000000000000000000000000000000000000000000000000600052604160045260246000fd5b6040519080825280601f01601f1916602001820160405280156118155781602001600182028036833780820191505090505b509050600082602001820190505b6001156118a8578080600190039150507f3031323334353637383961626364656600000000000000000000000000000000600a86061a8153600a8581611892577f4e487b7100000000000000000000000000000000000000000000000000000000600052601260045260246000fd5b04945060008514156118a3576118a8565b611823565b819350505050919050565b6118bc826115f9565b6118fb576040517f08c379a00000000000000000000000000000000000000000000000000000000081526004016118f2906131c6565b60405180910390fd5b80600a60008481526020019081526020016000209080519060200190611922929190612703565b507ff8e1a15aba9398e019f0b49df1a4fde98ee17ae345cb5f6b5e2c27f5033e8ce7826040516119529190613306565b60405180910390a15050565b60007f780e9d63000000000000000000000000000000000000000000000000000000007bffffffffffffffffffffffffffffffffffffffffffffffffffffffff1916827bffffffffffffffffffffffffffffffffffffffffffffffffffffffff191614806119d157506119d082611e98565b5b9050919050565b6119e484848484611f7a565b50505050565b50505050565b6000611a118473ffffffffffffffffffffffffffffffffffffffff166120da565b15611b7a578373ffffffffffffffffffffffffffffffffffffffff1663150b7a02611a3a610e5f565b8786866040518563ffffffff1660e01b8152600401611a5c9493929190612ff4565b602060405180830381600087803b158015611a7657600080fd5b505af1925050508015611aa757506040513d601f19601f82011682018060405250810190611aa49190612b41565b60015b611b2a573d8060008114611ad7576040519150601f19603f3d011682016040523d82523d6000602084013e611adc565b606091505b50600081511415611b22576040517f08c379a0000000000000000000000000000000000000000000000000000000008152600401611b19906130e6565b60405180910390fd5b805181602001fd5b63150b7a0260e01b7bffffffffffffffffffffffffffffffffffffffffffffffffffffffff1916817bffffffffffffffffffffffffffffffffffffffffffffffffffffffff191614915050611b7f565b600190505b949350505050565b606060405180602001604052806000815250905090565b6060611ba982610e14565b6000611bb3611b87565b90506000815111611bd35760405180602001604052806000815250611bfe565b80611bdd8461178f565b604051602001611bee929190612f51565b6040516020818303038152906040525b915050919050565b611c1083836120fd565b611c1d60008484846119f0565b611c5c576040517f08c379a0000000000000000000000000000000000000000000000000000000008152600401611c53906130e6565b60405180910390fd5b505050565b600080600090507a184f03e93ff9f4daa797ed6e38ed64bf6a1f0100000000000000008310611ce5577a184f03e93ff9f4daa797ed6e38ed64bf6a1f0100000000000000008381611cdb577f4e487b7100000000000000000000000000000000000000000000000000000000600052601260045260246000fd5b0492506040810190505b6d04ee2d6d415b85acef81000000008310611d48576d04ee2d6d415b85acef81000000008381611d3e577f4e487b7100000000000000000000000000000000000000000000000000000000600052601260045260246000fd5b0492506020810190505b662386f26fc100008310611d9d57662386f26fc100008381611d93577f4e487b7100000000000000000000000000000000000000000000000000000000600052601260045260246000fd5b0492506010810190505b6305f5e1008310611dec576305f5e1008381611de2577f4e487b7100000000000000000000000000000000000000000000000000000000600052601260045260246000fd5b0492506008810190505b6127108310611e37576127108381611e2d577f4e487b7100000000000000000000000000000000000000000000000000000000600052601260045260246000fd5b0492506004810190505b60648310611e805760648381611e76577f4e487b7100000000000000000000000000000000000000000000000000000000600052601260045260246000fd5b0492506002810190505b600a8310611e8f576001810190505b80915050919050565b60007f80ac58cd000000000000000000000000000000000000000000000000000000007bffffffffffffffffffffffffffffffffffffffffffffffffffffffff1916827bffffffffffffffffffffffffffffffffffffffffffffffffffffffff19161480611f6357507f5b5e139f000000000000000000000000000000000000000000000000000000007bffffffffffffffffffffffffffffffffffffffffffffffffffffffff1916827bffffffffffffffffffffffffffffffffffffffffffffffffffffffff1916145b80611f735750611f728261231b565b5b9050919050565b611f8684848484612385565b6001811115611fca576040517f08c379a0000000000000000000000000000000000000000000000000000000008152600401611fc1906132e6565b60405180910390fd5b6000829050600073ffffffffffffffffffffffffffffffffffffffff168573ffffffffffffffffffffffffffffffffffffffff1614156120125761200d8161238b565b612051565b8373ffffffffffffffffffffffffffffffffffffffff168573ffffffffffffffffffffffffffffffffffffffff16146120505761204f85826123d4565b5b5b600073ffffffffffffffffffffffffffffffffffffffff168473ffffffffffffffffffffffffffffffffffffffff1614156120945761208f81612541565b6120d3565b8473ffffffffffffffffffffffffffffffffffffffff168473ffffffffffffffffffffffffffffffffffffffff16146120d2576120d18482612684565b5b5b5050505050565b6000808273ffffffffffffffffffffffffffffffffffffffff163b119050919050565b600073ffffffffffffffffffffffffffffffffffffffff168273ffffffffffffffffffffffffffffffffffffffff16141561216d576040517f08c379a0000000000000000000000000000000000000000000000000000000008152600401612164906131e6565b60405180910390fd5b612176816115f9565b156121b6576040517f08c379a00000000000000000000000000000000000000000000000000000000081526004016121ad90613146565b60405180910390fd5b6121c46000838360016119d8565b6121cd816115f9565b1561220d576040517f08c379a000000000000000000000000000000000000000000000000000000000815260040161220490613146565b60405180910390fd5b6001600360008473ffffffffffffffffffffffffffffffffffffffff1673ffffffffffffffffffffffffffffffffffffffff16815260200190815260200160002060008282540192505081905550816002600083815260200190815260200160002060006101000a81548173ffffffffffffffffffffffffffffffffffffffff021916908373ffffffffffffffffffffffffffffffffffffffff160217905550808273ffffffffffffffffffffffffffffffffffffffff16600073ffffffffffffffffffffffffffffffffffffffff167fddf252ad1be2c89b69c2b068fc378daa952ba7f163c4a11628f55a4df523b3ef60405160405180910390a46123176000838360016119ea565b5050565b60007f01ffc9a7000000000000000000000000000000000000000000000000000000007bffffffffffffffffffffffffffffffffffffffffffffffffffffffff1916827bffffffffffffffffffffffffffffffffffffffffffffffffffffffff1916149050919050565b50505050565b6008805490506009600083815260200190815260200160002081905550600881908060018154018082558091505060019003906000526020600020016000909190919091505550565b600060016123e184610888565b6123eb91906133eb565b90506000600760008481526020019081526020016000205490508181146124d0576000600660008673ffffffffffffffffffffffffffffffffffffffff1673ffffffffffffffffffffffffffffffffffffffff168152602001908152602001600020600084815260200190815260200160002054905080600660008773ffffffffffffffffffffffffffffffffffffffff1673ffffffffffffffffffffffffffffffffffffffff168152602001908152602001600020600084815260200190815260200160002081905550816007600083815260200190815260200160002081905550505b6007600084815260200190815260200160002060009055600660008573ffffffffffffffffffffffffffffffffffffffff1673ffffffffffffffffffffffffffffffffffffffff16815260200190815260200160002060008381526020019081526020016000206000905550505050565b6000600160088054905061255591906133eb565b90506000600960008481526020019081526020016000205490506000600883815481106125ab577f4e487b7100000000000000000000000000000000000000000000000000000000600052603260045260246000fd5b9060005260206000200154905080600883815481106125f3577f4e487b7100000000000000000000000000000000000000000000000000000000600052603260045260246000fd5b906000526020600020018190555081600960008381526020019081526020016000208190555060096000858152602001908152602001600020600090556008805480612668577f4e487b7100000000000000000000000000000000000000000000000000000000600052603160045260246000fd5b6001900381819060005260206000200160009055905550505050565b600061268f83610888565b905081600660008573ffffffffffffffffffffffffffffffffffffffff1673ffffffffffffffffffffffffffffffffffffffff168152602001908152602001600020600083815260200190815260200160002081905550806007600084815260200190815260200160002081905550505050565b82805461270f906134f9565b90600052602060002090601f0160209004810192826127315760008555612778565b82601f1061274a57805160ff1916838001178555612778565b82800160010185558215612778579182015b8281111561277757825182559160200191906001019061275c565b5b5090506127859190612789565b5090565b5b808211156127a257600081600090555060010161278a565b5090565b60006127b96127b484613346565b613321565b9050828152602081018484840111156127d157600080fd5b6127dc8482856134b7565b509392505050565b60006127f76127f284613377565b613321565b90508281526020810184848401111561280f57600080fd5b61281a8482856134b7565b509392505050565b60008135905061283181613bb7565b92915050565b60008135905061284681613bce565b92915050565b60008151905061285b81613bce565b92915050565b60008135905061287081613be5565b92915050565b60008151905061288581613be5565b92915050565b600082601f83011261289c57600080fd5b81356128ac8482602086016127a6565b91505092915050565b600082601f8301126128c657600080fd5b81356128d68482602086016127e4565b91505092915050565b6000813590506128ee81613bfc565b92915050565b60006020828403121561290657600080fd5b600061291484828501612822565b91505092915050565b6000806040838503121561293057600080fd5b600061293e85828601612822565b925050602061294f85828601612822565b9150509250929050565b60008060006060848603121561296e57600080fd5b600061297c86828701612822565b935050602061298d86828701612822565b925050604061299e868287016128df565b9150509250925092565b600080600080608085870312156129be57600080fd5b60006129cc87828801612822565b94505060206129dd87828801612822565b93505060406129ee878288016128df565b925050606085013567ffffffffffffffff811115612a0b57600080fd5b612a178782880161288b565b91505092959194509250565b60008060408385031215612a3657600080fd5b6000612a4485828601612822565b9250506020612a5585828601612837565b9150509250929050565b60008060408385031215612a7257600080fd5b6000612a8085828601612822565b925050602083013567ffffffffffffffff811115612a9d57600080fd5b612aa9858286016128b5565b9150509250929050565b60008060408385031215612ac657600080fd5b6000612ad485828601612822565b9250506020612ae5858286016128df565b9150509250929050565b600060208284031215612b0157600080fd5b6000612b0f8482850161284c565b91505092915050565b600060208284031215612b2a57600080fd5b6000612b3884828501612861565b91505092915050565b600060208284031215612b5357600080fd5b6000612b6184828501612876565b91505092915050565b600060208284031215612b7c57600080fd5b6000612b8a848285016128df565b91505092915050565b612b9c8161341f565b82525050565b612bab81613431565b82525050565b6000612bbc826133a8565b612bc681856133be565b9350612bd68185602086016134c6565b612bdf816135e9565b840191505092915050565b612bf381613493565b82525050565b6000612c04826133b3565b612c0e81856133cf565b9350612c1e8185602086016134c6565b612c27816135e9565b840191505092915050565b6000612c3d826133b3565b612c4781856133e0565b9350612c578185602086016134c6565b80840191505092915050565b6000612c70602d836133cf565b9150612c7b826135fa565b604082019050919050565b6000612c93602b836133cf565b9150612c9e82613649565b604082019050919050565b6000612cb66032836133cf565b9150612cc182613698565b604082019050919050565b6000612cd96026836133cf565b9150612ce4826136e7565b604082019050919050565b6000612cfc6025836133cf565b9150612d0782613736565b604082019050919050565b6000612d1f601c836133cf565b9150612d2a82613785565b602082019050919050565b6000612d426024836133cf565b9150612d4d826137ae565b604082019050919050565b6000612d656019836133cf565b9150612d70826137fd565b602082019050919050565b6000612d886057836133e0565b9150612d9382613826565b605782019050919050565b6000612dab6029836133cf565b9150612db68261389b565b604082019050919050565b6000612dce602e836133cf565b9150612dd9826138ea565b604082019050919050565b6000612df16020836133cf565b9150612dfc82613939565b602082019050919050565b6000612e146005836133e0565b9150612e1f82613962565b600582019050919050565b6000612e376020836133cf565b9150612e428261398b565b602082019050919050565b6000612e5a602f836133cf565b9150612e65826139b4565b604082019050919050565b6000612e7d6018836133cf565b9150612e8882613a03565b602082019050919050565b6000612ea06021836133cf565b9150612eab82613a2c565b604082019050919050565b6000612ec36024836133cf565b9150612ece82613a7b565b604082019050919050565b6000612ee6603d836133cf565b9150612ef182613aca565b604082019050919050565b6000612f09602c836133cf565b9150612f1482613b19565b604082019050919050565b6000612f2c6035836133cf565b9150612f3782613b68565b604082019050919050565b612f4b81613489565b82525050565b6000612f5d8285612c32565b9150612f698284612c32565b91508190509392505050565b6000612f8082612d7b565b9150612f8c8284612c32565b9150612f9782612e07565b915081905092915050565b6000602082019050612fb76000830184612b93565b92915050565b6000606082019050612fd26000830186612b93565b612fdf6020830185612b93565b612fec6040830184612f42565b949350505050565b60006080820190506130096000830187612b93565b6130166020830186612b93565b6130236040830185612f42565b81810360608301526130358184612bb1565b905095945050505050565b60006020820190506130556000830184612ba2565b92915050565b60006040820190506130706000830185612bea565b61307d6020830184612f42565b9392505050565b6000602082019050818103600083015261309e8184612bf9565b905092915050565b600060208201905081810360008301526130bf81612c63565b9050919050565b600060208201905081810360008301526130df81612c86565b9050919050565b600060208201905081810360008301526130ff81612ca9565b9050919050565b6000602082019050818103600083015261311f81612ccc565b9050919050565b6000602082019050818103600083015261313f81612cef565b9050919050565b6000602082019050818103600083015261315f81612d12565b9050919050565b6000602082019050818103600083015261317f81612d35565b9050919050565b6000602082019050818103600083015261319f81612d58565b9050919050565b600060208201905081810360008301526131bf81612d9e565b9050919050565b600060208201905081810360008301526131df81612dc1565b9050919050565b600060208201905081810360008301526131ff81612de4565b9050919050565b6000602082019050818103600083015261321f81612e2a565b9050919050565b6000602082019050818103600083015261323f81612e4d565b9050919050565b6000602082019050818103600083015261325f81612e70565b9050919050565b6000602082019050818103600083015261327f81612e93565b9050919050565b6000602082019050818103600083015261329f81612eb6565b9050919050565b600060208201905081810360008301526132bf81612ed9565b9050919050565b600060208201905081810360008301526132df81612efc565b9050919050565b600060208201905081810360008301526132ff81612f1f565b9050919050565b600060208201905061331b6000830184612f42565b92915050565b600061332b61333c565b9050613337828261352b565b919050565b6000604051905090565b600067ffffffffffffffff821115613361576133606135ba565b5b61336a826135e9565b9050602081019050919050565b600067ffffffffffffffff821115613392576133916135ba565b5b61339b826135e9565b9050602081019050919050565b600081519050919050565b600081519050919050565b600082825260208201905092915050565b600082825260208201905092915050565b600081905092915050565b60006133f682613489565b915061340183613489565b9250828210156134145761341361355c565b5b828203905092915050565b600061342a82613469565b9050919050565b60008115159050919050565b60007fffffffff0000000000000000000000000000000000000000000000000000000082169050919050565b600073ffffffffffffffffffffffffffffffffffffffff82169050919050565b6000819050919050565b600061349e826134a5565b9050919050565b60006134b082613469565b9050919050565b82818337600083830152505050565b60005b838110156134e45780820151818401526020810190506134c9565b838111156134f3576000848401525b50505050565b6000600282049050600182168061351157607f821691505b602082108114156135255761352461358b565b5b50919050565b613534826135e9565b810181811067ffffffffffffffff82111715613553576135526135ba565b5b80604052505050565b7f4e487b7100000000000000000000000000000000000000000000000000000000600052601160045260246000fd5b7f4e487b7100000000000000000000000000000000000000000000000000000000600052602260045260246000fd5b7f4e487b7100000000000000000000000000000000000000000000000000000000600052604160045260246000fd5b6000601f19601f8301169050919050565b7f4552433732313a2063616c6c6572206973206e6f7420746f6b656e206f776e6560008201527f72206f7220617070726f76656400000000000000000000000000000000000000602082015250565b7f455243373231456e756d657261626c653a206f776e657220696e646578206f7560008201527f74206f6620626f756e6473000000000000000000000000000000000000000000602082015250565b7f4552433732313a207472616e7366657220746f206e6f6e20455243373231526560008201527f63656976657220696d706c656d656e7465720000000000000000000000000000602082015250565b7f4f776e61626c653a206e6577206f776e657220697320746865207a65726f206160008201527f6464726573730000000000000000000000000000000000000000000000000000602082015250565b7f4552433732313a207472616e736665722066726f6d20696e636f72726563742060008201527f6f776e6572000000000000000000000000000000000000000000000000000000602082015250565b7f4552433732313a20746f6b656e20616c7265616479206d696e74656400000000600082015250565b7f4552433732313a207472616e7366657220746f20746865207a65726f2061646460008201527f7265737300000000000000000000000000000000000000000000000000000000602082015250565b7f4552433732313a20617070726f766520746f2063616c6c657200000000000000600082015250565b7f68747470733a2f2f676174657761792e70696e6174612e636c6f75642f69706660008201527f732f516d59446d38427a796534524d53376839485576314b6f7570616a71586360208201527f73664b5557774d6547767343335a6b412f6567676f3030000000000000000000604082015250565b7f4552433732313a2061646472657373207a65726f206973206e6f74206120766160008201527f6c6964206f776e65720000000000000000000000000000000000000000000000602082015250565b7f45524337323155524953746f726167653a2055524920736574206f66206e6f6e60008201527f6578697374656e7420746f6b656e000000000000000000000000000000000000602082015250565b7f4552433732313a206d696e7420746f20746865207a65726f2061646472657373600082015250565b7f2e6a736f6e000000000000000000000000000000000000000000000000000000600082015250565b7f4f776e61626c653a2063616c6c6572206973206e6f7420746865206f776e6572600082015250565b7f4552433732314d657461646174613a2055524920717565727920666f72206e6f60008201527f6e6578697374656e7420746f6b656e0000000000000000000000000000000000602082015250565b7f4552433732313a20696e76616c696420746f6b656e2049440000000000000000600082015250565b7f4552433732313a20617070726f76616c20746f2063757272656e74206f776e6560008201527f7200000000000000000000000000000000000000000000000000000000000000602082015250565b7f4661696c656420746f207472616e73666572207061796d656e7443757272656e60008201527f6379312100000000000000000000000000000000000000000000000000000000602082015250565b7f4552433732313a20617070726f76652063616c6c6572206973206e6f7420746f60008201527f6b656e206f776e6572206f7220617070726f76656420666f7220616c6c000000602082015250565b7f455243373231456e756d657261626c653a20676c6f62616c20696e646578206f60008201527f7574206f6620626f756e64730000000000000000000000000000000000000000602082015250565b7f455243373231456e756d657261626c653a20636f6e736563757469766520747260008201527f616e7366657273206e6f7420737570706f727465640000000000000000000000602082015250565b613bc08161341f565b8114613bcb57600080fd5b50565b613bd781613431565b8114613be257600080fd5b50565b613bee8161343d565b8114613bf957600080fd5b50565b613c0581613489565b8114613c1057600080fd5b5056fea26469706673582212203159fa44e4e2ce2dc00ed074109295de33a20e5c70a79203aef0255fa731c61964736f6c63430008040033",
  "immutableReferences": {},
  "source": "// SPDX-License-Identifier: MIT\r\npragma solidity ^0.8.4;\r\n\r\nimport \"@openzeppelin/contracts/token/ERC20/ERC20.sol\";\r\nimport \"@openzeppelin/contracts/token/ERC721/ERC721.sol\";\r\nimport \"@openzeppelin/contracts/token/ERC721/extensions/ERC721Enumerable.sol\";\r\nimport \"@openzeppelin/contracts/token/ERC721/extensions/ERC721URIStorage.sol\";\r\nimport \"@openzeppelin/contracts/access/Ownable.sol\";\r\nimport \"@openzeppelin/contracts/utils/Counters.sol\";\r\nimport \"@openzeppelin/contracts/utils/Strings.sol\";\r\n\r\ncontract LumberNFT is ERC721, ERC721Enumerable, ERC721URIStorage, Ownable {\r\n    using Counters for Counters.Counter;\r\n\r\n    Counters.Counter private _tokenIdCounter;\r\n\r\n    struct Payment {\r\n        ERC20 paymentCurrency;\r\n        uint256 amount;\r\n    }\r\n    Payment public LumberPrice;\r\n\r\n    constructor(\r\n        ERC20 _paymentCurrency,\r\n        uint256 _amount\r\n    ) ERC721(\"Lumber NFT\", \"LUM\") {\r\n        require(\r\n            address(_paymentCurrency) != address(0),\r\n            \"Token address can't be address zero\"\r\n        );\r\n        LumberPrice = Payment(_paymentCurrency, _amount);\r\n    }\r\n\r\n    function safeMint(address to, string memory uri) public onlyOwner {\r\n        uint256 tokenId = _tokenIdCounter.current();\r\n        _tokenIdCounter.increment();\r\n        _safeMint(to, tokenId);\r\n        _setTokenURI(tokenId, uri);\r\n    }\r\n\r\n    function buyLumber() public {\r\n        require(\r\n            IERC20(LumberPrice.paymentCurrency).transferFrom(\r\n                msg.sender,\r\n                address(this),\r\n                LumberPrice.amount\r\n            ),\r\n            \"Failed to transfer paymentCurrency1!\"\r\n        );\r\n        uint256 tokenId = _tokenIdCounter.current();\r\n        _tokenIdCounter.increment();\r\n        _safeMint(msg.sender, tokenId);\r\n        _setTokenURI(\r\n            tokenId,\r\n            string(\r\n                abi.encodePacked(\r\n                    \"https://gateway.pinata.cloud/ipfs/QmYDm8Bzye4RMS7h9HUv1KoupajqXcsfKUWwMeGvsC3ZkA/eggo00\",\r\n                    Strings.toString(tokenId),\r\n                    \".json\"\r\n                )\r\n            )\r\n        );\r\n    }\r\n\r\n    // The following functions are overrides required by Solidity.\r\n\r\n    function _beforeTokenTransfer(\r\n        address from,\r\n        address to,\r\n        uint256 tokenId,\r\n        uint256 batchSize\r\n    ) internal override(ERC721, ERC721Enumerable) {\r\n        super._beforeTokenTransfer(from, to, tokenId, batchSize);\r\n    }\r\n\r\n    function _burn(\r\n        uint256 tokenId\r\n    ) internal override(ERC721, ERC721URIStorage) {\r\n        super._burn(tokenId);\r\n    }\r\n\r\n    function tokenURI(\r\n        uint256 tokenId\r\n    ) public view override(ERC721, ERC721URIStorage) returns (string memory) {\r\n        require(\r\n            _exists(tokenId),\r\n            \"ERC721Metadata: URI query for nonexistent token\"\r\n        );\r\n        return super.tokenURI(tokenId);\r\n    }\r\n\r\n    function supportsInterface(\r\n        bytes4 interfaceId\r\n    )\r\n        public\r\n        view\r\n        override(\r\n            ERC721,\r\n            ERC721Enumerable,\r\n            ERC721URIStorage // Add ERC721URIStorage\r\n        )\r\n        returns (bool)\r\n    {\r\n        return super.supportsInterface(interfaceId);\r\n    }\r\n}\r\n",
  "sourcePath": "C:\\Users\\sumer\\OneDrive\\Desktop\\Trading-NFTs\\contracts\\LumberNFT.sol",
  "compiler": {
    "name": "solc",
    "version": "0.8.4+commit.c7e474f2.Emscripten.clang"
  },
  "schemaVersion": "3.4.13",
  "updatedAt": "2023-05-29T12:24:00.493Z",
  "networkType": "ethereum",
  "devdoc": {
    "kind": "dev",
    "methods": {
      "approve(address,uint256)": {
        "details": "See {IERC721-approve}."
      },
      "balanceOf(address)": {
        "details": "See {IERC721-balanceOf}."
      },
      "getApproved(uint256)": {
        "details": "See {IERC721-getApproved}."
      },
      "isApprovedForAll(address,address)": {
        "details": "See {IERC721-isApprovedForAll}."
      },
      "name()": {
        "details": "See {IERC721Metadata-name}."
      },
      "owner()": {
        "details": "Returns the address of the current owner."
      },
      "ownerOf(uint256)": {
        "details": "See {IERC721-ownerOf}."
      },
      "renounceOwnership()": {
        "details": "Leaves the contract without owner. It will not be possible to call `onlyOwner` functions. Can only be called by the current owner. NOTE: Renouncing ownership will leave the contract without an owner, thereby disabling any functionality that is only available to the owner."
      },
      "safeTransferFrom(address,address,uint256)": {
        "details": "See {IERC721-safeTransferFrom}."
      },
      "safeTransferFrom(address,address,uint256,bytes)": {
        "details": "See {IERC721-safeTransferFrom}."
      },
      "setApprovalForAll(address,bool)": {
        "details": "See {IERC721-setApprovalForAll}."
      },
      "symbol()": {
        "details": "See {IERC721Metadata-symbol}."
      },
      "tokenByIndex(uint256)": {
        "details": "See {IERC721Enumerable-tokenByIndex}."
      },
      "tokenOfOwnerByIndex(address,uint256)": {
        "details": "See {IERC721Enumerable-tokenOfOwnerByIndex}."
      },
      "totalSupply()": {
        "details": "See {IERC721Enumerable-totalSupply}."
      },
      "transferFrom(address,address,uint256)": {
        "details": "See {IERC721-transferFrom}."
      },
      "transferOwnership(address)": {
        "details": "Transfers ownership of the contract to a new account (`newOwner`). Can only be called by the current owner."
      }
    },
    "version": 1
  },
  "userdoc": {
    "kind": "user",
    "methods": {},
    "version": 1
  }
}